{
  "_format": "hh-sol-artifact-1",
  "contractName": "PrizeWheel",
  "sourceName": "contracts/PrizeWheel.sol",
  "abi": [
    {
      "inputs": [
        {
          "internalType": "address",
          "name": "entropyAddress",
          "type": "address"
        }
      ],
      "stateMutability": "nonpayable",
      "type": "constructor"
    },
    {
      "inputs": [
        {
          "internalType": "uint64",
          "name": "sequence",
          "type": "uint64"
        },
        {
          "internalType": "address",
          "name": "provider",
          "type": "address"
        },
        {
          "internalType": "bytes32",
          "name": "randomNumber",
          "type": "bytes32"
        }
      ],
      "name": "_entropyCallback",
      "outputs": [],
      "stateMutability": "nonpayable",
      "type": "function"
    },
    {
      "inputs": [],
      "name": "entropy",
      "outputs": [
        {
          "internalType": "contract IEntropyV2",
          "name": "",
          "type": "address"
        }
      ],
      "stateMutability": "view",
      "type": "function"
    },
    {
      "inputs": [
        {
          "internalType": "uint64",
          "name": "sequence",
          "type": "uint64"
        }
      ],
      "name": "getPrize",
      "outputs": [
        {
          "internalType": "string",
          "name": "",
          "type": "string"
        }
      ],
      "stateMutability": "view",
      "type": "function"
    },
    {
      "inputs": [
        {
          "internalType": "uint64",
          "name": "",
          "type": "uint64"
        }
      ],
      "name": "prizeResults",
      "outputs": [
        {
          "internalType": "string",
          "name": "",
          "type": "string"
        }
      ],
      "stateMutability": "view",
      "type": "function"
    },
    {
      "inputs": [
        {
          "internalType": "uint256",
          "name": "",
          "type": "uint256"
        }
      ],
      "name": "prizes",
      "outputs": [
        {
          "internalType": "string",
          "name": "",
          "type": "string"
        }
      ],
      "stateMutability": "view",
      "type": "function"
    },
    {
      "inputs": [
        {
          "internalType": "uint64",
          "name": "",
          "type": "uint64"
        }
      ],
      "name": "randomResults",
      "outputs": [
        {
          "internalType": "bytes32",
          "name": "",
          "type": "bytes32"
        }
      ],
      "stateMutability": "view",
      "type": "function"
    },
    {
      "inputs": [],
      "name": "requestRandomness",
      "outputs": [
        {
          "internalType": "uint64",
          "name": "sequence",
          "type": "uint64"
        }
      ],
      "stateMutability": "payable",
      "type": "function"
    },
    {
      "inputs": [
        {
          "internalType": "uint64",
          "name": "sequence",
          "type": "uint64"
        },
        {
          "internalType": "address",
          "name": "provider",
          "type": "address"
        },
        {
          "internalType": "bytes32",
          "name": "randomNumber",
          "type": "bytes32"
        }
      ],
      "name": "triggerCallbackForTesting",
      "outputs": [],
      "stateMutability": "nonpayable",
      "type": "function"
    }
  ],
  "bytecode": "0x60176101409081527f436f6c6420506c756e676520576974682050657069746f000000000000000000610160526080908152600f6101809081526e0546f6f74682046726f6d2043686f7608c1b6101a05260a05260186101c09081527f504c616e636b20546f656e61696c20436c697070696e677300000000000000006101e05260c052600b6102009081526a4e6f6e616d6520536f636b60a81b6102205260e052600a6102409081526942617473342057696e6760b01b61026052610100526102c0604052600e6102809081526d4c6f776b6569676873204b65797360901b6102a052610120526100f59060039060066101a0565b5034801561010257600080fd5b50604051610c00380380610c0083398101604081905261012191610265565b6001600160a01b03811661017b5760405162461bcd60e51b815260206004820152601760248201527f496e76616c696420656e74726f70792061646472657373000000000000000000604482015260640160405180910390fd5b600080546001600160a01b0319166001600160a01b03929092169190911790556103f2565b8280548282559060005260206000209081019282156101e6579160200282015b828111156101e657825182906101d69082610334565b50916020019190600101906101c0565b506101f29291506101f6565b5090565b808211156101f257600061020a8282610213565b506001016101f6565b50805461021f906102ab565b6000825580601f1061022f575050565b601f01602090049060005260206000209081019061024d9190610250565b50565b5b808211156101f25760008155600101610251565b60006020828403121561027757600080fd5b81516001600160a01b038116811461028e57600080fd5b9392505050565b634e487b7160e01b600052604160045260246000fd5b600181811c908216806102bf57607f821691505b6020821081036102df57634e487b7160e01b600052602260045260246000fd5b50919050565b601f82111561032f57806000526020600020601f840160051c8101602085101561030c5750805b601f840160051c820191505b8181101561032c5760008155600101610318565b50505b505050565b81516001600160401b0381111561034d5761034d610295565b6103618161035b84546102ab565b846102e5565b6020601f821160018114610395576000831561037d5750848201515b600019600385901b1c1916600184901b17845561032c565b600084815260208120601f198516915b828110156103c557878501518255602094850194600190920191016103a5565b50848210156103e35786840151600019600387901b60f8161c191681555b50505050600190811b01905550565b6107ff806104016000396000f3fe60806040526004361061007b5760003560e01c8063b47beec01161004e578063b47beec01461013a578063e6aaf20614610167578063eccb3a4f14610187578063f8413b07146101a757600080fd5b806347ce07cc1461008057806352a5f1f8146100bd57806390088b59146100df57806396eefa5f1461011a575b600080fd5b34801561008c57600080fd5b506000546100a0906001600160a01b031681565b6040516001600160a01b0390911681526020015b60405180910390f35b3480156100c957600080fd5b506100dd6100d8366004610528565b6101c8565b005b3480156100eb57600080fd5b5061010c6100fa366004610575565b60016020526000908152604090205481565b6040519081526020016100b4565b34801561012657600080fd5b506100dd610135366004610528565b61029b565b34801561014657600080fd5b5061015a610155366004610575565b6102ab565b6040516100b49190610599565b34801561017357600080fd5b5061015a610182366004610575565b610345565b34801561019357600080fd5b5061015a6101a23660046105e7565b6103f2565b6101af61041d565b60405167ffffffffffffffff90911681526020016100b4565b6000546001600160a01b0316806102265760405162461bcd60e51b815260206004820152601760248201527f456e74726f70792061646472657373206e6f742073657400000000000000000060448201526064015b60405180910390fd5b336001600160a01b0382161461028a5760405162461bcd60e51b815260206004820152602360248201527f4f6e6c7920456e74726f70792063616e2063616c6c20746869732066756e637460448201526234b7b760e91b606482015260840161021d565b61029584848461049d565b50505050565b6102a683838361049d565b505050565b600260205260009081526040902080546102c490610600565b80601f01602080910402602001604051908101604052809291908181526020018280546102f090610600565b801561033d5780601f106103125761010080835404028352916020019161033d565b820191906000526020600020905b81548152906001019060200180831161032057829003601f168201915b505050505081565b67ffffffffffffffff8116600090815260026020526040902080546060919061036d90610600565b80601f016020809104026020016040519081016040528092919081815260200182805461039990610600565b80156103e65780601f106103bb576101008083540402835291602001916103e6565b820191906000526020600020905b8154815290600101906020018083116103c957829003601f168201915b50505050509050919050565b6003818154811061040257600080fd5b9060005260206000200160009150905080546102c490610600565b60008060009054906101000a90046001600160a01b03166001600160a01b0316637b43155d346040518263ffffffff1660e01b815260040160206040518083038185885af1158015610473573d6000803e3d6000fd5b50505050506040513d601f19601f82011682018060405250810190610498919061063a565b905090565b67ffffffffffffffff831660009081526001602052604081208290556003546104c69083610657565b9050600381815481106104db576104db610679565b6000918252602080832067ffffffffffffffff8816845260029091526040909220916105089101826106ec565b5050505050565b67ffffffffffffffff8116811461052557600080fd5b50565b60008060006060848603121561053d57600080fd5b83356105488161050f565b925060208401356001600160a01b038116811461056457600080fd5b929592945050506040919091013590565b60006020828403121561058757600080fd5b81356105928161050f565b9392505050565b602081526000825180602084015260005b818110156105c757602081860181015160408684010152016105aa565b506000604082850101526040601f19601f83011684010191505092915050565b6000602082840312156105f957600080fd5b5035919050565b600181811c9082168061061457607f821691505b60208210810361063457634e487b7160e01b600052602260045260246000fd5b50919050565b60006020828403121561064c57600080fd5b81516105928161050f565b60008261067457634e487b7160e01b600052601260045260246000fd5b500690565b634e487b7160e01b600052603260045260246000fd5b634e487b7160e01b600052604160045260246000fd5b601f8211156102a657806000526020600020601f840160051c810160208510156106cc5750805b601f840160051c820191505b8181101561050857600081556001016106d8565b8181036106f7575050565b6107018254610600565b67ffffffffffffffff8111156107195761071961068f565b61072d816107278454610600565b846106a5565b6000601f82116001811461076157600083156107495750848201545b600019600385901b1c1916600184901b178455610508565b600085815260209020601f19841690600086815260209020845b8381101561079b578286015482556001958601959091019060200161077b565b50858310156107b95781850154600019600388901b60f8161c191681555b5050505050600190811b0190555056fea26469706673582212206ccb38c8a400fa5283d718c2bc5ac783829c9cfdf9e1f9301bdf6b772bad4ae964736f6c634300081c0033",
  "linkReferences": {},
  "deployedLinkReferences": {}
}