{"contracts/mocks/MockEntropyV2.sol":{"MockEntropyV2":{"abi":[{"inputs":[],"name":"requestV2","outputs":[{"internalType":"uint64","name":"","type":"uint64"}],"stateMutability":"payable","type":"function"},{"inputs":[],"name":"sequenceCounter","outputs":[{"internalType":"uint64","name":"","type":"uint64"}],"stateMutability":"view","type":"function"}],"evm":{"bytecode":{"linkReferences":{},"object":"6080604052348015600f57600080fd5b506101e58061001f6000396000f3fe6080604052600436106100295760003560e01c80637b43155d1461002e578063a5494ce514610053575b600080fd5b610036610074565b60405167ffffffffffffffff909116815260200160405180910390f35b34801561005f57600080fd5b506000546100369067ffffffffffffffff1681565b6000805467ffffffffffffffff16818061008d83610174565b82546101009290920a67ffffffffffffffff818102199093169190921691909102179055506000805460408051426020820152449181019190915260c09190911b6001600160c01b031916606082015260680160408051808303601f19018152908290528051602090910120600054630a54be3f60e31b835267ffffffffffffffff16600483015230602483015260448201819052915033906352a5f1f890606401600060405180830381600087803b15801561014957600080fd5b505af115801561015d573d6000803e3d6000fd5b505060005467ffffffffffffffff16949350505050565b600067ffffffffffffffff821667ffffffffffffffff81036101a657634e487b7160e01b600052601160045260246000fd5b6001019291505056fea2646970667358221220a2828bffc9dff08eee4d1f1b2be03adac2b3e7ead5614f8374cf24e92ec7244064736f6c634300081c0033","opcodes":"PUSH1 0x80 PUSH1 0x40 MSTORE CALLVALUE DUP1 ISZERO PUSH1 0xF JUMPI PUSH1 0x0 DUP1 REVERT JUMPDEST POP PUSH2 0x1E5 DUP1 PUSH2 0x1F PUSH1 0x0 CODECOPY PUSH1 0x0 RETURN INVALID PUSH1 0x80 PUSH1 0x40 MSTORE PUSH1 0x4 CALLDATASIZE LT PUSH2 0x29 JUMPI PUSH1 0x0 CALLDATALOAD PUSH1 0xE0 SHR DUP1 PUSH4 0x7B43155D EQ PUSH2 0x2E JUMPI DUP1 PUSH4 0xA5494CE5 EQ PUSH2 0x53 JUMPI JUMPDEST PUSH1 0x0 DUP1 REVERT JUMPDEST PUSH2 0x36 PUSH2 0x74 JUMP JUMPDEST PUSH1 0x40 MLOAD PUSH8 0xFFFFFFFFFFFFFFFF SWAP1 SWAP2 AND DUP2 MSTORE PUSH1 0x20 ADD PUSH1 0x40 MLOAD DUP1 SWAP2 SUB SWAP1 RETURN JUMPDEST CALLVALUE DUP1 ISZERO PUSH2 0x5F JUMPI PUSH1 0x0 DUP1 REVERT JUMPDEST POP PUSH1 0x0 SLOAD PUSH2 0x36 SWAP1 PUSH8 0xFFFFFFFFFFFFFFFF AND DUP2 JUMP JUMPDEST PUSH1 0x0 DUP1 SLOAD PUSH8 0xFFFFFFFFFFFFFFFF AND DUP2 DUP1 PUSH2 0x8D DUP4 PUSH2 0x174 JUMP JUMPDEST DUP3 SLOAD PUSH2 0x100 SWAP3 SWAP1 SWAP3 EXP PUSH8 0xFFFFFFFFFFFFFFFF DUP2 DUP2 MUL NOT SWAP1 SWAP4 AND SWAP2 SWAP1 SWAP3 AND SWAP2 SWAP1 SWAP2 MUL OR SWAP1 SSTORE POP PUSH1 0x0 DUP1 SLOAD PUSH1 0x40 DUP1 MLOAD TIMESTAMP PUSH1 0x20 DUP3 ADD MSTORE PREVRANDAO SWAP2 DUP2 ADD SWAP2 SWAP1 SWAP2 MSTORE PUSH1 0xC0 SWAP2 SWAP1 SWAP2 SHL PUSH1 0x1 PUSH1 0x1 PUSH1 0xC0 SHL SUB NOT AND PUSH1 0x60 DUP3 ADD MSTORE PUSH1 0x68 ADD PUSH1 0x40 DUP1 MLOAD DUP1 DUP4 SUB PUSH1 0x1F NOT ADD DUP2 MSTORE SWAP1 DUP3 SWAP1 MSTORE DUP1 MLOAD PUSH1 0x20 SWAP1 SWAP2 ADD KECCAK256 PUSH1 0x0 SLOAD PUSH4 0xA54BE3F PUSH1 0xE3 SHL DUP4 MSTORE PUSH8 0xFFFFFFFFFFFFFFFF AND PUSH1 0x4 DUP4 ADD MSTORE ADDRESS PUSH1 0x24 DUP4 ADD MSTORE PUSH1 0x44 DUP3 ADD DUP2 SWAP1 MSTORE SWAP2 POP CALLER SWAP1 PUSH4 0x52A5F1F8 SWAP1 PUSH1 0x64 ADD PUSH1 0x0 PUSH1 0x40 MLOAD DUP1 DUP4 SUB DUP2 PUSH1 0x0 DUP8 DUP1 EXTCODESIZE ISZERO DUP1 ISZERO PUSH2 0x149 JUMPI PUSH1 0x0 DUP1 REVERT JUMPDEST POP GAS CALL ISZERO DUP1 ISZERO PUSH2 0x15D JUMPI RETURNDATASIZE PUSH1 0x0 DUP1 RETURNDATACOPY RETURNDATASIZE PUSH1 0x0 REVERT JUMPDEST POP POP PUSH1 0x0 SLOAD PUSH8 0xFFFFFFFFFFFFFFFF AND SWAP5 SWAP4 POP POP POP POP JUMP JUMPDEST PUSH1 0x0 PUSH8 0xFFFFFFFFFFFFFFFF DUP3 AND PUSH8 0xFFFFFFFFFFFFFFFF DUP2 SUB PUSH2 0x1A6 JUMPI PUSH4 0x4E487B71 PUSH1 0xE0 SHL PUSH1 0x0 MSTORE PUSH1 0x11 PUSH1 0x4 MSTORE PUSH1 0x24 PUSH1 0x0 REVERT JUMPDEST PUSH1 0x1 ADD SWAP3 SWAP2 POP POP JUMP INVALID LOG2 PUSH5 0x6970667358 0x22 SLT KECCAK256 LOG2 DUP3 DUP12 SELFDESTRUCT 0xC9 0xDF CREATE DUP15 0xEE 0x4D 0x1F SHL 0x2B 0xE0 GASPRICE 0xDA 0xC2 0xB3 0xE7 0xEA 0xD5 PUSH2 0x4F83 PUSH21 0xCF24E92EC7244064736F6C634300081C0033000000 "},"methodIdentifiers":{"requestV2()":"7b43155d","sequenceCounter()":"a5494ce5"}}}}}