{"contracts/PrizeWheel.sol":{"PrizeWheel":{"abi":[{"inputs":[{"internalType":"address","name":"entropyAddress","type":"address"}],"stateMutability":"nonpayable","type":"constructor"},{"inputs":[{"internalType":"uint64","name":"sequence","type":"uint64"},{"internalType":"address","name":"provider","type":"address"},{"internalType":"bytes32","name":"randomNumber","type":"bytes32"}],"name":"_entropyCallback","outputs":[],"stateMutability":"nonpayable","type":"function"},{"inputs":[],"name":"entropy","outputs":[{"internalType":"contract IEntropyV2","name":"","type":"address"}],"stateMutability":"view","type":"function"},{"inputs":[{"internalType":"uint64","name":"sequence","type":"uint64"}],"name":"getPrize","outputs":[{"internalType":"string","name":"","type":"string"}],"stateMutability":"view","type":"function"},{"inputs":[{"internalType":"uint64","name":"","type":"uint64"}],"name":"prizeResults","outputs":[{"internalType":"string","name":"","type":"string"}],"stateMutability":"view","type":"function"},{"inputs":[{"internalType":"uint256","name":"","type":"uint256"}],"name":"prizes","outputs":[{"internalType":"string","name":"","type":"string"}],"stateMutability":"view","type":"function"},{"inputs":[{"internalType":"uint64","name":"","type":"uint64"}],"name":"randomResults","outputs":[{"internalType":"bytes32","name":"","type":"bytes32"}],"stateMutability":"view","type":"function"},{"inputs":[],"name":"requestRandomness","outputs":[{"internalType":"uint64","name":"sequence","type":"uint64"}],"stateMutability":"payable","type":"function"}],"evm":{"bytecode":{"linkReferences":{},"object":"60176101409081527f436f6c6420506c756e676520576974682050657069746f000000000000000000610160526080908152600f6101809081526e0546f6f74682046726f6d2043686f7608c1b6101a05260a05260186101c09081527f504c616e636b20546f656e61696c20436c697070696e677300000000000000006101e05260c052600b6102009081526a4e6f6e616d6520536f636b60a81b6102205260e052600a6102409081526942617473342057696e6760b01b61026052610100526102c0604052600e6102809081526d4c6f776b6569676873204b65797360901b6102a052610120526100f59060039060066101a0565b5034801561010257600080fd5b50604051610bca380380610bca83398101604081905261012191610265565b6001600160a01b03811661017b5760405162461bcd60e51b815260206004820152601760248201527f496e76616c696420656e74726f70792061646472657373000000000000000000604482015260640160405180910390fd5b600080546001600160a01b0319166001600160a01b03929092169190911790556103f2565b8280548282559060005260206000209081019282156101e6579160200282015b828111156101e657825182906101d69082610334565b50916020019190600101906101c0565b506101f29291506101f6565b5090565b808211156101f257600061020a8282610213565b506001016101f6565b50805461021f906102ab565b6000825580601f1061022f575050565b601f01602090049060005260206000209081019061024d9190610250565b50565b5b808211156101f25760008155600101610251565b60006020828403121561027757600080fd5b81516001600160a01b038116811461028e57600080fd5b9392505050565b634e487b7160e01b600052604160045260246000fd5b600181811c908216806102bf57607f821691505b6020821081036102df57634e487b7160e01b600052602260045260246000fd5b50919050565b601f82111561032f57806000526020600020601f840160051c8101602085101561030c5750805b601f840160051c820191505b8181101561032c5760008155600101610318565b50505b505050565b81516001600160401b0381111561034d5761034d610295565b6103618161035b84546102ab565b846102e5565b6020601f821160018114610395576000831561037d5750848201515b600019600385901b1c1916600184901b17845561032c565b600084815260208120601f198516915b828110156103c557878501518255602094850194600190920191016103a5565b50848210156103e35786840151600019600387901b60f8161c191681555b50505050600190811b01905550565b6107c9806104016000396000f3fe6080604052600436106100705760003560e01c8063b47beec01161004e578063b47beec01461010f578063e6aaf2061461013c578063eccb3a4f1461015c578063f8413b071461017c57600080fd5b806347ce07cc1461007557806352a5f1f8146100b257806390088b59146100d4575b600080fd5b34801561008157600080fd5b50600054610095906001600160a01b031681565b6040516001600160a01b0390911681526020015b60405180910390f35b3480156100be57600080fd5b506100d26100cd3660046104ed565b61019d565b005b3480156100e057600080fd5b506101016100ef36600461053a565b60016020526000908152604090205481565b6040519081526020016100a9565b34801561011b57600080fd5b5061012f61012a36600461053a565b610270565b6040516100a9919061055e565b34801561014857600080fd5b5061012f61015736600461053a565b61030a565b34801561016857600080fd5b5061012f6101773660046105ac565b6103b7565b6101846103e2565b60405167ffffffffffffffff90911681526020016100a9565b6000546001600160a01b0316806101fb5760405162461bcd60e51b815260206004820152601760248201527f456e74726f70792061646472657373206e6f742073657400000000000000000060448201526064015b60405180910390fd5b336001600160a01b0382161461025f5760405162461bcd60e51b815260206004820152602360248201527f4f6e6c7920456e74726f70792063616e2063616c6c20746869732066756e637460448201526234b7b760e91b60648201526084016101f2565b61026a848484610462565b50505050565b60026020526000908152604090208054610289906105c5565b80601f01602080910402602001604051908101604052809291908181526020018280546102b5906105c5565b80156103025780601f106102d757610100808354040283529160200191610302565b820191906000526020600020905b8154815290600101906020018083116102e557829003601f168201915b505050505081565b67ffffffffffffffff81166000908152600260205260409020805460609190610332906105c5565b80601f016020809104026020016040519081016040528092919081815260200182805461035e906105c5565b80156103ab5780601f10610380576101008083540402835291602001916103ab565b820191906000526020600020905b81548152906001019060200180831161038e57829003601f168201915b50505050509050919050565b600381815481106103c757600080fd5b906000526020600020016000915090508054610289906105c5565b60008060009054906101000a90046001600160a01b03166001600160a01b0316637b43155d346040518263ffffffff1660e01b815260040160206040518083038185885af1158015610438573d6000803e3d6000fd5b50505050506040513d601f19601f8201168201806040525081019061045d91906105ff565b905090565b67ffffffffffffffff8316600090815260016020526040812082905560035461048b908361061c565b9050600381815481106104a0576104a061063e565b6000918252602080832067ffffffffffffffff8816845260029091526040909220916104cd9101826106b6565b5050505050565b67ffffffffffffffff811681146104ea57600080fd5b50565b60008060006060848603121561050257600080fd5b833561050d816104d4565b925060208401356001600160a01b038116811461052957600080fd5b929592945050506040919091013590565b60006020828403121561054c57600080fd5b8135610557816104d4565b9392505050565b602081526000825180602084015260005b8181101561058c576020818601810151604086840101520161056f565b506000604082850101526040601f19601f83011684010191505092915050565b6000602082840312156105be57600080fd5b5035919050565b600181811c908216806105d957607f821691505b6020821081036105f957634e487b7160e01b600052602260045260246000fd5b50919050565b60006020828403121561061157600080fd5b8151610557816104d4565b60008261063957634e487b7160e01b600052601260045260246000fd5b500690565b634e487b7160e01b600052603260045260246000fd5b634e487b7160e01b600052604160045260246000fd5b601f8211156106b157806000526020600020601f840160051c810160208510156106915750805b601f840160051c820191505b818110156104cd576000815560010161069d565b505050565b8181036106c1575050565b6106cb82546105c5565b67ffffffffffffffff8111156106e3576106e3610654565b6106f7816106f184546105c5565b8461066a565b6000601f82116001811461072b57600083156107135750848201545b600019600385901b1c1916600184901b1784556104cd565b600085815260209020601f19841690600086815260209020845b838110156107655782860154825560019586019590910190602001610745565b50858310156107835781850154600019600388901b60f8161c191681555b5050505050600190811b0190555056fea2646970667358221220db7d87f0d3351bc09a0f12b6289d4ed247267ff50bf106b9f1ab111e4e99b0ee64736f6c634300081c0033","opcodes":"PUSH1 0x17 PUSH2 0x140 SWAP1 DUP2 MSTORE PUSH32 0x436F6C6420506C756E676520576974682050657069746F000000000000000000 PUSH2 0x160 MSTORE PUSH1 0x80 SWAP1 DUP2 MSTORE PUSH1 0xF PUSH2 0x180 SWAP1 DUP2 MSTORE PUSH15 0x546F6F74682046726F6D2043686F7 PUSH1 0x8C SHL PUSH2 0x1A0 MSTORE PUSH1 0xA0 MSTORE PUSH1 0x18 PUSH2 0x1C0 SWAP1 DUP2 MSTORE PUSH32 0x504C616E636B20546F656E61696C20436C697070696E67730000000000000000 PUSH2 0x1E0 MSTORE PUSH1 0xC0 MSTORE PUSH1 0xB PUSH2 0x200 SWAP1 DUP2 MSTORE PUSH11 0x4E6F6E616D6520536F636B PUSH1 0xA8 SHL PUSH2 0x220 MSTORE PUSH1 0xE0 MSTORE PUSH1 0xA PUSH2 0x240 SWAP1 DUP2 MSTORE PUSH10 0x42617473342057696E67 PUSH1 0xB0 SHL PUSH2 0x260 MSTORE PUSH2 0x100 MSTORE PUSH2 0x2C0 PUSH1 0x40 MSTORE PUSH1 0xE PUSH2 0x280 SWAP1 DUP2 MSTORE PUSH14 0x4C6F776B6569676873204B657973 PUSH1 0x90 SHL PUSH2 0x2A0 MSTORE PUSH2 0x120 MSTORE PUSH2 0xF5 SWAP1 PUSH1 0x3 SWAP1 PUSH1 0x6 PUSH2 0x1A0 JUMP JUMPDEST POP CALLVALUE DUP1 ISZERO PUSH2 0x102 JUMPI PUSH1 0x0 DUP1 REVERT JUMPDEST POP PUSH1 0x40 MLOAD PUSH2 0xBCA CODESIZE SUB DUP1 PUSH2 0xBCA DUP4 CODECOPY DUP2 ADD PUSH1 0x40 DUP2 SWAP1 MSTORE PUSH2 0x121 SWAP2 PUSH2 0x265 JUMP JUMPDEST PUSH1 0x1 PUSH1 0x1 PUSH1 0xA0 SHL SUB DUP2 AND PUSH2 0x17B JUMPI PUSH1 0x40 MLOAD PUSH3 0x461BCD PUSH1 0xE5 SHL DUP2 MSTORE PUSH1 0x20 PUSH1 0x4 DUP3 ADD MSTORE PUSH1 0x17 PUSH1 0x24 DUP3 ADD MSTORE PUSH32 0x496E76616C696420656E74726F70792061646472657373000000000000000000 PUSH1 0x44 DUP3 ADD MSTORE PUSH1 0x64 ADD PUSH1 0x40 MLOAD DUP1 SWAP2 SUB SWAP1 REVERT JUMPDEST PUSH1 0x0 DUP1 SLOAD PUSH1 0x1 PUSH1 0x1 PUSH1 0xA0 SHL SUB NOT AND PUSH1 0x1 PUSH1 0x1 PUSH1 0xA0 SHL SUB SWAP3 SWAP1 SWAP3 AND SWAP2 SWAP1 SWAP2 OR SWAP1 SSTORE PUSH2 0x3F2 JUMP JUMPDEST DUP3 DUP1 SLOAD DUP3 DUP3 SSTORE SWAP1 PUSH1 0x0 MSTORE PUSH1 0x20 PUSH1 0x0 KECCAK256 SWAP1 DUP2 ADD SWAP3 DUP3 ISZERO PUSH2 0x1E6 JUMPI SWAP2 PUSH1 0x20 MUL DUP3 ADD JUMPDEST DUP3 DUP2 GT ISZERO PUSH2 0x1E6 JUMPI DUP3 MLOAD DUP3 SWAP1 PUSH2 0x1D6 SWAP1 DUP3 PUSH2 0x334 JUMP JUMPDEST POP SWAP2 PUSH1 0x20 ADD SWAP2 SWAP1 PUSH1 0x1 ADD SWAP1 PUSH2 0x1C0 JUMP JUMPDEST POP PUSH2 0x1F2 SWAP3 SWAP2 POP PUSH2 0x1F6 JUMP JUMPDEST POP SWAP1 JUMP JUMPDEST DUP1 DUP3 GT ISZERO PUSH2 0x1F2 JUMPI PUSH1 0x0 PUSH2 0x20A DUP3 DUP3 PUSH2 0x213 JUMP JUMPDEST POP PUSH1 0x1 ADD PUSH2 0x1F6 JUMP JUMPDEST POP DUP1 SLOAD PUSH2 0x21F SWAP1 PUSH2 0x2AB JUMP JUMPDEST PUSH1 0x0 DUP3 SSTORE DUP1 PUSH1 0x1F LT PUSH2 0x22F JUMPI POP POP JUMP JUMPDEST PUSH1 0x1F ADD PUSH1 0x20 SWAP1 DIV SWAP1 PUSH1 0x0 MSTORE PUSH1 0x20 PUSH1 0x0 KECCAK256 SWAP1 DUP2 ADD SWAP1 PUSH2 0x24D SWAP2 SWAP1 PUSH2 0x250 JUMP JUMPDEST POP JUMP JUMPDEST JUMPDEST DUP1 DUP3 GT ISZERO PUSH2 0x1F2 JUMPI PUSH1 0x0 DUP2 SSTORE PUSH1 0x1 ADD PUSH2 0x251 JUMP JUMPDEST PUSH1 0x0 PUSH1 0x20 DUP3 DUP5 SUB SLT ISZERO PUSH2 0x277 JUMPI PUSH1 0x0 DUP1 REVERT JUMPDEST DUP2 MLOAD PUSH1 0x1 PUSH1 0x1 PUSH1 0xA0 SHL SUB DUP2 AND DUP2 EQ PUSH2 0x28E JUMPI PUSH1 0x0 DUP1 REVERT JUMPDEST SWAP4 SWAP3 POP POP POP JUMP JUMPDEST PUSH4 0x4E487B71 PUSH1 0xE0 SHL PUSH1 0x0 MSTORE PUSH1 0x41 PUSH1 0x4 MSTORE PUSH1 0x24 PUSH1 0x0 REVERT JUMPDEST PUSH1 0x1 DUP2 DUP2 SHR SWAP1 DUP3 AND DUP1 PUSH2 0x2BF JUMPI PUSH1 0x7F DUP3 AND SWAP2 POP JUMPDEST PUSH1 0x20 DUP3 LT DUP2 SUB PUSH2 0x2DF JUMPI PUSH4 0x4E487B71 PUSH1 0xE0 SHL PUSH1 0x0 MSTORE PUSH1 0x22 PUSH1 0x4 MSTORE PUSH1 0x24 PUSH1 0x0 REVERT JUMPDEST POP SWAP2 SWAP1 POP JUMP JUMPDEST PUSH1 0x1F DUP3 GT ISZERO PUSH2 0x32F JUMPI DUP1 PUSH1 0x0 MSTORE PUSH1 0x20 PUSH1 0x0 KECCAK256 PUSH1 0x1F DUP5 ADD PUSH1 0x5 SHR DUP2 ADD PUSH1 0x20 DUP6 LT ISZERO PUSH2 0x30C JUMPI POP DUP1 JUMPDEST PUSH1 0x1F DUP5 ADD PUSH1 0x5 SHR DUP3 ADD SWAP2 POP JUMPDEST DUP2 DUP2 LT ISZERO PUSH2 0x32C JUMPI PUSH1 0x0 DUP2 SSTORE PUSH1 0x1 ADD PUSH2 0x318 JUMP JUMPDEST POP POP JUMPDEST POP POP POP JUMP JUMPDEST DUP2 MLOAD PUSH1 0x1 PUSH1 0x1 PUSH1 0x40 SHL SUB DUP2 GT ISZERO PUSH2 0x34D JUMPI PUSH2 0x34D PUSH2 0x295 JUMP JUMPDEST PUSH2 0x361 DUP2 PUSH2 0x35B DUP5 SLOAD PUSH2 0x2AB JUMP JUMPDEST DUP5 PUSH2 0x2E5 JUMP JUMPDEST PUSH1 0x20 PUSH1 0x1F DUP3 GT PUSH1 0x1 DUP2 EQ PUSH2 0x395 JUMPI PUSH1 0x0 DUP4 ISZERO PUSH2 0x37D JUMPI POP DUP5 DUP3 ADD MLOAD JUMPDEST PUSH1 0x0 NOT PUSH1 0x3 DUP6 SWAP1 SHL SHR NOT AND PUSH1 0x1 DUP5 SWAP1 SHL OR DUP5 SSTORE PUSH2 0x32C JUMP JUMPDEST PUSH1 0x0 DUP5 DUP2 MSTORE PUSH1 0x20 DUP2 KECCAK256 PUSH1 0x1F NOT DUP6 AND SWAP2 JUMPDEST DUP3 DUP2 LT ISZERO PUSH2 0x3C5 JUMPI DUP8 DUP6 ADD MLOAD DUP3 SSTORE PUSH1 0x20 SWAP5 DUP6 ADD SWAP5 PUSH1 0x1 SWAP1 SWAP3 ADD SWAP2 ADD PUSH2 0x3A5 JUMP JUMPDEST POP DUP5 DUP3 LT ISZERO PUSH2 0x3E3 JUMPI DUP7 DUP5 ADD MLOAD PUSH1 0x0 NOT PUSH1 0x3 DUP8 SWAP1 SHL PUSH1 0xF8 AND SHR NOT AND DUP2 SSTORE JUMPDEST POP POP POP POP PUSH1 0x1 SWAP1 DUP2 SHL ADD SWAP1 SSTORE POP JUMP JUMPDEST PUSH2 0x7C9 DUP1 PUSH2 0x401 PUSH1 0x0 CODECOPY PUSH1 0x0 RETURN INVALID PUSH1 0x80 PUSH1 0x40 MSTORE PUSH1 0x4 CALLDATASIZE LT PUSH2 0x70 JUMPI PUSH1 0x0 CALLDATALOAD PUSH1 0xE0 SHR DUP1 PUSH4 0xB47BEEC0 GT PUSH2 0x4E JUMPI DUP1 PUSH4 0xB47BEEC0 EQ PUSH2 0x10F JUMPI DUP1 PUSH4 0xE6AAF206 EQ PUSH2 0x13C JUMPI DUP1 PUSH4 0xECCB3A4F EQ PUSH2 0x15C JUMPI DUP1 PUSH4 0xF8413B07 EQ PUSH2 0x17C JUMPI PUSH1 0x0 DUP1 REVERT JUMPDEST DUP1 PUSH4 0x47CE07CC EQ PUSH2 0x75 JUMPI DUP1 PUSH4 0x52A5F1F8 EQ PUSH2 0xB2 JUMPI DUP1 PUSH4 0x90088B59 EQ PUSH2 0xD4 JUMPI JUMPDEST PUSH1 0x0 DUP1 REVERT JUMPDEST CALLVALUE DUP1 ISZERO PUSH2 0x81 JUMPI PUSH1 0x0 DUP1 REVERT JUMPDEST POP PUSH1 0x0 SLOAD PUSH2 0x95 SWAP1 PUSH1 0x1 PUSH1 0x1 PUSH1 0xA0 SHL SUB AND DUP2 JUMP JUMPDEST PUSH1 0x40 MLOAD PUSH1 0x1 PUSH1 0x1 PUSH1 0xA0 SHL SUB SWAP1 SWAP2 AND DUP2 MSTORE PUSH1 0x20 ADD JUMPDEST PUSH1 0x40 MLOAD DUP1 SWAP2 SUB SWAP1 RETURN JUMPDEST CALLVALUE DUP1 ISZERO PUSH2 0xBE JUMPI PUSH1 0x0 DUP1 REVERT JUMPDEST POP PUSH2 0xD2 PUSH2 0xCD CALLDATASIZE PUSH1 0x4 PUSH2 0x4ED JUMP JUMPDEST PUSH2 0x19D JUMP JUMPDEST STOP JUMPDEST CALLVALUE DUP1 ISZERO PUSH2 0xE0 JUMPI PUSH1 0x0 DUP1 REVERT JUMPDEST POP PUSH2 0x101 PUSH2 0xEF CALLDATASIZE PUSH1 0x4 PUSH2 0x53A JUMP JUMPDEST PUSH1 0x1 PUSH1 0x20 MSTORE PUSH1 0x0 SWAP1 DUP2 MSTORE PUSH1 0x40 SWAP1 KECCAK256 SLOAD DUP2 JUMP JUMPDEST PUSH1 0x40 MLOAD SWAP1 DUP2 MSTORE PUSH1 0x20 ADD PUSH2 0xA9 JUMP JUMPDEST CALLVALUE DUP1 ISZERO PUSH2 0x11B JUMPI PUSH1 0x0 DUP1 REVERT JUMPDEST POP PUSH2 0x12F PUSH2 0x12A CALLDATASIZE PUSH1 0x4 PUSH2 0x53A JUMP JUMPDEST PUSH2 0x270 JUMP JUMPDEST PUSH1 0x40 MLOAD PUSH2 0xA9 SWAP2 SWAP1 PUSH2 0x55E JUMP JUMPDEST CALLVALUE DUP1 ISZERO PUSH2 0x148 JUMPI PUSH1 0x0 DUP1 REVERT JUMPDEST POP PUSH2 0x12F PUSH2 0x157 CALLDATASIZE PUSH1 0x4 PUSH2 0x53A JUMP JUMPDEST PUSH2 0x30A JUMP JUMPDEST CALLVALUE DUP1 ISZERO PUSH2 0x168 JUMPI PUSH1 0x0 DUP1 REVERT JUMPDEST POP PUSH2 0x12F PUSH2 0x177 CALLDATASIZE PUSH1 0x4 PUSH2 0x5AC JUMP JUMPDEST PUSH2 0x3B7 JUMP JUMPDEST PUSH2 0x184 PUSH2 0x3E2 JUMP JUMPDEST PUSH1 0x40 MLOAD PUSH8 0xFFFFFFFFFFFFFFFF SWAP1 SWAP2 AND DUP2 MSTORE PUSH1 0x20 ADD PUSH2 0xA9 JUMP JUMPDEST PUSH1 0x0 SLOAD PUSH1 0x1 PUSH1 0x1 PUSH1 0xA0 SHL SUB AND DUP1 PUSH2 0x1FB JUMPI PUSH1 0x40 MLOAD PUSH3 0x461BCD PUSH1 0xE5 SHL DUP2 MSTORE PUSH1 0x20 PUSH1 0x4 DUP3 ADD MSTORE PUSH1 0x17 PUSH1 0x24 DUP3 ADD MSTORE PUSH32 0x456E74726F70792061646472657373206E6F7420736574000000000000000000 PUSH1 0x44 DUP3 ADD MSTORE PUSH1 0x64 ADD JUMPDEST PUSH1 0x40 MLOAD DUP1 SWAP2 SUB SWAP1 REVERT JUMPDEST CALLER PUSH1 0x1 PUSH1 0x1 PUSH1 0xA0 SHL SUB DUP3 AND EQ PUSH2 0x25F JUMPI PUSH1 0x40 MLOAD PUSH3 0x461BCD PUSH1 0xE5 SHL DUP2 MSTORE PUSH1 0x20 PUSH1 0x4 DUP3 ADD MSTORE PUSH1 0x23 PUSH1 0x24 DUP3 ADD MSTORE PUSH32 0x4F6E6C7920456E74726F70792063616E2063616C6C20746869732066756E6374 PUSH1 0x44 DUP3 ADD MSTORE PUSH3 0x34B7B7 PUSH1 0xE9 SHL PUSH1 0x64 DUP3 ADD MSTORE PUSH1 0x84 ADD PUSH2 0x1F2 JUMP JUMPDEST PUSH2 0x26A DUP5 DUP5 DUP5 PUSH2 0x462 JUMP JUMPDEST POP POP POP POP JUMP JUMPDEST PUSH1 0x2 PUSH1 0x20 MSTORE PUSH1 0x0 SWAP1 DUP2 MSTORE PUSH1 0x40 SWAP1 KECCAK256 DUP1 SLOAD PUSH2 0x289 SWAP1 PUSH2 0x5C5 JUMP JUMPDEST DUP1 PUSH1 0x1F ADD PUSH1 0x20 DUP1 SWAP2 DIV MUL PUSH1 0x20 ADD PUSH1 0x40 MLOAD SWAP1 DUP2 ADD PUSH1 0x40 MSTORE DUP1 SWAP3 SWAP2 SWAP1 DUP2 DUP2 MSTORE PUSH1 0x20 ADD DUP3 DUP1 SLOAD PUSH2 0x2B5 SWAP1 PUSH2 0x5C5 JUMP JUMPDEST DUP1 ISZERO PUSH2 0x302 JUMPI DUP1 PUSH1 0x1F LT PUSH2 0x2D7 JUMPI PUSH2 0x100 DUP1 DUP4 SLOAD DIV MUL DUP4 MSTORE SWAP2 PUSH1 0x20 ADD SWAP2 PUSH2 0x302 JUMP JUMPDEST DUP3 ADD SWAP2 SWAP1 PUSH1 0x0 MSTORE PUSH1 0x20 PUSH1 0x0 KECCAK256 SWAP1 JUMPDEST DUP2 SLOAD DUP2 MSTORE SWAP1 PUSH1 0x1 ADD SWAP1 PUSH1 0x20 ADD DUP1 DUP4 GT PUSH2 0x2E5 JUMPI DUP3 SWAP1 SUB PUSH1 0x1F AND DUP3 ADD SWAP2 JUMPDEST POP POP POP POP POP DUP2 JUMP JUMPDEST PUSH8 0xFFFFFFFFFFFFFFFF DUP2 AND PUSH1 0x0 SWAP1 DUP2 MSTORE PUSH1 0x2 PUSH1 0x20 MSTORE PUSH1 0x40 SWAP1 KECCAK256 DUP1 SLOAD PUSH1 0x60 SWAP2 SWAP1 PUSH2 0x332 SWAP1 PUSH2 0x5C5 JUMP JUMPDEST DUP1 PUSH1 0x1F ADD PUSH1 0x20 DUP1 SWAP2 DIV MUL PUSH1 0x20 ADD PUSH1 0x40 MLOAD SWAP1 DUP2 ADD PUSH1 0x40 MSTORE DUP1 SWAP3 SWAP2 SWAP1 DUP2 DUP2 MSTORE PUSH1 0x20 ADD DUP3 DUP1 SLOAD PUSH2 0x35E SWAP1 PUSH2 0x5C5 JUMP JUMPDEST DUP1 ISZERO PUSH2 0x3AB JUMPI DUP1 PUSH1 0x1F LT PUSH2 0x380 JUMPI PUSH2 0x100 DUP1 DUP4 SLOAD DIV MUL DUP4 MSTORE SWAP2 PUSH1 0x20 ADD SWAP2 PUSH2 0x3AB JUMP JUMPDEST DUP3 ADD SWAP2 SWAP1 PUSH1 0x0 MSTORE PUSH1 0x20 PUSH1 0x0 KECCAK256 SWAP1 JUMPDEST DUP2 SLOAD DUP2 MSTORE SWAP1 PUSH1 0x1 ADD SWAP1 PUSH1 0x20 ADD DUP1 DUP4 GT PUSH2 0x38E JUMPI DUP3 SWAP1 SUB PUSH1 0x1F AND DUP3 ADD SWAP2 JUMPDEST POP POP POP POP POP SWAP1 POP SWAP2 SWAP1 POP JUMP JUMPDEST PUSH1 0x3 DUP2 DUP2 SLOAD DUP2 LT PUSH2 0x3C7 JUMPI PUSH1 0x0 DUP1 REVERT JUMPDEST SWAP1 PUSH1 0x0 MSTORE PUSH1 0x20 PUSH1 0x0 KECCAK256 ADD PUSH1 0x0 SWAP2 POP SWAP1 POP DUP1 SLOAD PUSH2 0x289 SWAP1 PUSH2 0x5C5 JUMP JUMPDEST PUSH1 0x0 DUP1 PUSH1 0x0 SWAP1 SLOAD SWAP1 PUSH2 0x100 EXP SWAP1 DIV PUSH1 0x1 PUSH1 0x1 PUSH1 0xA0 SHL SUB AND PUSH1 0x1 PUSH1 0x1 PUSH1 0xA0 SHL SUB AND PUSH4 0x7B43155D CALLVALUE PUSH1 0x40 MLOAD DUP3 PUSH4 0xFFFFFFFF AND PUSH1 0xE0 SHL DUP2 MSTORE PUSH1 0x4 ADD PUSH1 0x20 PUSH1 0x40 MLOAD DUP1 DUP4 SUB DUP2 DUP6 DUP9 GAS CALL ISZERO DUP1 ISZERO PUSH2 0x438 JUMPI RETURNDATASIZE PUSH1 0x0 DUP1 RETURNDATACOPY RETURNDATASIZE PUSH1 0x0 REVERT JUMPDEST POP POP POP POP POP PUSH1 0x40 MLOAD RETURNDATASIZE PUSH1 0x1F NOT PUSH1 0x1F DUP3 ADD AND DUP3 ADD DUP1 PUSH1 0x40 MSTORE POP DUP2 ADD SWAP1 PUSH2 0x45D SWAP2 SWAP1 PUSH2 0x5FF JUMP JUMPDEST SWAP1 POP SWAP1 JUMP JUMPDEST PUSH8 0xFFFFFFFFFFFFFFFF DUP4 AND PUSH1 0x0 SWAP1 DUP2 MSTORE PUSH1 0x1 PUSH1 0x20 MSTORE PUSH1 0x40 DUP2 KECCAK256 DUP3 SWAP1 SSTORE PUSH1 0x3 SLOAD PUSH2 0x48B SWAP1 DUP4 PUSH2 0x61C JUMP JUMPDEST SWAP1 POP PUSH1 0x3 DUP2 DUP2 SLOAD DUP2 LT PUSH2 0x4A0 JUMPI PUSH2 0x4A0 PUSH2 0x63E JUMP JUMPDEST PUSH1 0x0 SWAP2 DUP3 MSTORE PUSH1 0x20 DUP1 DUP4 KECCAK256 PUSH8 0xFFFFFFFFFFFFFFFF DUP9 AND DUP5 MSTORE PUSH1 0x2 SWAP1 SWAP2 MSTORE PUSH1 0x40 SWAP1 SWAP3 KECCAK256 SWAP2 PUSH2 0x4CD SWAP2 ADD DUP3 PUSH2 0x6B6 JUMP JUMPDEST POP POP POP POP POP JUMP JUMPDEST PUSH8 0xFFFFFFFFFFFFFFFF DUP2 AND DUP2 EQ PUSH2 0x4EA JUMPI PUSH1 0x0 DUP1 REVERT JUMPDEST POP JUMP JUMPDEST PUSH1 0x0 DUP1 PUSH1 0x0 PUSH1 0x60 DUP5 DUP7 SUB SLT ISZERO PUSH2 0x502 JUMPI PUSH1 0x0 DUP1 REVERT JUMPDEST DUP4 CALLDATALOAD PUSH2 0x50D DUP2 PUSH2 0x4D4 JUMP JUMPDEST SWAP3 POP PUSH1 0x20 DUP5 ADD CALLDATALOAD PUSH1 0x1 PUSH1 0x1 PUSH1 0xA0 SHL SUB DUP2 AND DUP2 EQ PUSH2 0x529 JUMPI PUSH1 0x0 DUP1 REVERT JUMPDEST SWAP3 SWAP6 SWAP3 SWAP5 POP POP POP PUSH1 0x40 SWAP2 SWAP1 SWAP2 ADD CALLDATALOAD SWAP1 JUMP JUMPDEST PUSH1 0x0 PUSH1 0x20 DUP3 DUP5 SUB SLT ISZERO PUSH2 0x54C JUMPI PUSH1 0x0 DUP1 REVERT JUMPDEST DUP2 CALLDATALOAD PUSH2 0x557 DUP2 PUSH2 0x4D4 JUMP JUMPDEST SWAP4 SWAP3 POP POP POP JUMP JUMPDEST PUSH1 0x20 DUP2 MSTORE PUSH1 0x0 DUP3 MLOAD DUP1 PUSH1 0x20 DUP5 ADD MSTORE PUSH1 0x0 JUMPDEST DUP2 DUP2 LT ISZERO PUSH2 0x58C JUMPI PUSH1 0x20 DUP2 DUP7 ADD DUP2 ADD MLOAD PUSH1 0x40 DUP7 DUP5 ADD ADD MSTORE ADD PUSH2 0x56F JUMP JUMPDEST POP PUSH1 0x0 PUSH1 0x40 DUP3 DUP6 ADD ADD MSTORE PUSH1 0x40 PUSH1 0x1F NOT PUSH1 0x1F DUP4 ADD AND DUP5 ADD ADD SWAP2 POP POP SWAP3 SWAP2 POP POP JUMP JUMPDEST PUSH1 0x0 PUSH1 0x20 DUP3 DUP5 SUB SLT ISZERO PUSH2 0x5BE JUMPI PUSH1 0x0 DUP1 REVERT JUMPDEST POP CALLDATALOAD SWAP2 SWAP1 POP JUMP JUMPDEST PUSH1 0x1 DUP2 DUP2 SHR SWAP1 DUP3 AND DUP1 PUSH2 0x5D9 JUMPI PUSH1 0x7F DUP3 AND SWAP2 POP JUMPDEST PUSH1 0x20 DUP3 LT DUP2 SUB PUSH2 0x5F9 JUMPI PUSH4 0x4E487B71 PUSH1 0xE0 SHL PUSH1 0x0 MSTORE PUSH1 0x22 PUSH1 0x4 MSTORE PUSH1 0x24 PUSH1 0x0 REVERT JUMPDEST POP SWAP2 SWAP1 POP JUMP JUMPDEST PUSH1 0x0 PUSH1 0x20 DUP3 DUP5 SUB SLT ISZERO PUSH2 0x611 JUMPI PUSH1 0x0 DUP1 REVERT JUMPDEST DUP2 MLOAD PUSH2 0x557 DUP2 PUSH2 0x4D4 JUMP JUMPDEST PUSH1 0x0 DUP3 PUSH2 0x639 JUMPI PUSH4 0x4E487B71 PUSH1 0xE0 SHL PUSH1 0x0 MSTORE PUSH1 0x12 PUSH1 0x4 MSTORE PUSH1 0x24 PUSH1 0x0 REVERT JUMPDEST POP MOD SWAP1 JUMP JUMPDEST PUSH4 0x4E487B71 PUSH1 0xE0 SHL PUSH1 0x0 MSTORE PUSH1 0x32 PUSH1 0x4 MSTORE PUSH1 0x24 PUSH1 0x0 REVERT JUMPDEST PUSH4 0x4E487B71 PUSH1 0xE0 SHL PUSH1 0x0 MSTORE PUSH1 0x41 PUSH1 0x4 MSTORE PUSH1 0x24 PUSH1 0x0 REVERT JUMPDEST PUSH1 0x1F DUP3 GT ISZERO PUSH2 0x6B1 JUMPI DUP1 PUSH1 0x0 MSTORE PUSH1 0x20 PUSH1 0x0 KECCAK256 PUSH1 0x1F DUP5 ADD PUSH1 0x5 SHR DUP2 ADD PUSH1 0x20 DUP6 LT ISZERO PUSH2 0x691 JUMPI POP DUP1 JUMPDEST PUSH1 0x1F DUP5 ADD PUSH1 0x5 SHR DUP3 ADD SWAP2 POP JUMPDEST DUP2 DUP2 LT ISZERO PUSH2 0x4CD JUMPI PUSH1 0x0 DUP2 SSTORE PUSH1 0x1 ADD PUSH2 0x69D JUMP JUMPDEST POP POP POP JUMP JUMPDEST DUP2 DUP2 SUB PUSH2 0x6C1 JUMPI POP POP JUMP JUMPDEST PUSH2 0x6CB DUP3 SLOAD PUSH2 0x5C5 JUMP JUMPDEST PUSH8 0xFFFFFFFFFFFFFFFF DUP2 GT ISZERO PUSH2 0x6E3 JUMPI PUSH2 0x6E3 PUSH2 0x654 JUMP JUMPDEST PUSH2 0x6F7 DUP2 PUSH2 0x6F1 DUP5 SLOAD PUSH2 0x5C5 JUMP JUMPDEST DUP5 PUSH2 0x66A JUMP JUMPDEST PUSH1 0x0 PUSH1 0x1F DUP3 GT PUSH1 0x1 DUP2 EQ PUSH2 0x72B JUMPI PUSH1 0x0 DUP4 ISZERO PUSH2 0x713 JUMPI POP DUP5 DUP3 ADD SLOAD JUMPDEST PUSH1 0x0 NOT PUSH1 0x3 DUP6 SWAP1 SHL SHR NOT AND PUSH1 0x1 DUP5 SWAP1 SHL OR DUP5 SSTORE PUSH2 0x4CD JUMP JUMPDEST PUSH1 0x0 DUP6 DUP2 MSTORE PUSH1 0x20 SWAP1 KECCAK256 PUSH1 0x1F NOT DUP5 AND SWAP1 PUSH1 0x0 DUP7 DUP2 MSTORE PUSH1 0x20 SWAP1 KECCAK256 DUP5 JUMPDEST DUP4 DUP2 LT ISZERO PUSH2 0x765 JUMPI DUP3 DUP7 ADD SLOAD DUP3 SSTORE PUSH1 0x1 SWAP6 DUP7 ADD SWAP6 SWAP1 SWAP2 ADD SWAP1 PUSH1 0x20 ADD PUSH2 0x745 JUMP JUMPDEST POP DUP6 DUP4 LT ISZERO PUSH2 0x783 JUMPI DUP2 DUP6 ADD SLOAD PUSH1 0x0 NOT PUSH1 0x3 DUP9 SWAP1 SHL PUSH1 0xF8 AND SHR NOT AND DUP2 SSTORE JUMPDEST POP POP POP POP POP PUSH1 0x1 SWAP1 DUP2 SHL ADD SWAP1 SSTORE POP JUMP INVALID LOG2 PUSH5 0x6970667358 0x22 SLT KECCAK256 0xDB PUSH30 0x87F0D3351BC09A0F12B6289D4ED247267FF50BF106B9F1AB111E4E99B0EE PUSH5 0x736F6C6343 STOP ADDMOD SHR STOP CALLER "},"methodIdentifiers":{"_entropyCallback(uint64,address,bytes32)":"52a5f1f8","entropy()":"47ce07cc","getPrize(uint64)":"e6aaf206","prizeResults(uint64)":"b47beec0","prizes(uint256)":"eccb3a4f","randomResults(uint64)":"90088b59","requestRandomness()":"f8413b07"}}}}}