{"contracts/libs/pyth-entropy/MockPyth.sol":{"MockPyth":{"abi":[{"inputs":[{"internalType":"uint256","name":"_validTimePeriod","type":"uint256"},{"internalType":"uint256","name":"_singleUpdateFeeInWei","type":"uint256"}],"stateMutability":"nonpayable","type":"constructor"},{"inputs":[],"name":"InsufficientFee","type":"error"},{"inputs":[],"name":"PriceFeedNotFound","type":"error"},{"inputs":[],"name":"PriceFeedNotFoundWithinRange","type":"error"},{"inputs":[],"name":"StalePrice","type":"error"},{"anonymous":false,"inputs":[{"indexed":false,"internalType":"uint16","name":"chainId","type":"uint16"},{"indexed":false,"internalType":"uint64","name":"sequenceNumber","type":"uint64"}],"name":"BatchPriceFeedUpdate","type":"event"},{"anonymous":false,"inputs":[{"indexed":true,"internalType":"bytes32","name":"id","type":"bytes32"},{"indexed":false,"internalType":"uint64","name":"publishTime","type":"uint64"},{"indexed":false,"internalType":"int64","name":"price","type":"int64"},{"indexed":false,"internalType":"uint64","name":"conf","type":"uint64"}],"name":"PriceFeedUpdate","type":"event"},{"inputs":[{"internalType":"bytes32","name":"id","type":"bytes32"},{"internalType":"int64","name":"price","type":"int64"},{"internalType":"uint64","name":"conf","type":"uint64"},{"internalType":"int32","name":"expo","type":"int32"},{"internalType":"int64","name":"emaPrice","type":"int64"},{"internalType":"uint64","name":"emaConf","type":"uint64"},{"internalType":"uint64","name":"publishTime","type":"uint64"}],"name":"createPriceFeedUpdateData","outputs":[{"internalType":"bytes","name":"","type":"bytes"}],"stateMutability":"pure","type":"function"},{"inputs":[{"internalType":"bytes32","name":"id","type":"bytes32"}],"name":"getEmaPrice","outputs":[{"components":[{"internalType":"int64","name":"price","type":"int64"},{"internalType":"uint64","name":"conf","type":"uint64"},{"internalType":"int32","name":"expo","type":"int32"},{"internalType":"uint256","name":"publishTime","type":"uint256"}],"internalType":"struct PythStructs.Price","name":"price","type":"tuple"}],"stateMutability":"view","type":"function"},{"inputs":[{"internalType":"bytes32","name":"id","type":"bytes32"},{"internalType":"uint256","name":"age","type":"uint256"}],"name":"getEmaPriceNoOlderThan","outputs":[{"components":[{"internalType":"int64","name":"price","type":"int64"},{"internalType":"uint64","name":"conf","type":"uint64"},{"internalType":"int32","name":"expo","type":"int32"},{"internalType":"uint256","name":"publishTime","type":"uint256"}],"internalType":"struct PythStructs.Price","name":"price","type":"tuple"}],"stateMutability":"view","type":"function"},{"inputs":[{"internalType":"bytes32","name":"id","type":"bytes32"}],"name":"getEmaPriceUnsafe","outputs":[{"components":[{"internalType":"int64","name":"price","type":"int64"},{"internalType":"uint64","name":"conf","type":"uint64"},{"internalType":"int32","name":"expo","type":"int32"},{"internalType":"uint256","name":"publishTime","type":"uint256"}],"internalType":"struct PythStructs.Price","name":"price","type":"tuple"}],"stateMutability":"view","type":"function"},{"inputs":[{"internalType":"bytes32","name":"id","type":"bytes32"}],"name":"getPrice","outputs":[{"components":[{"internalType":"int64","name":"price","type":"int64"},{"internalType":"uint64","name":"conf","type":"uint64"},{"internalType":"int32","name":"expo","type":"int32"},{"internalType":"uint256","name":"publishTime","type":"uint256"}],"internalType":"struct PythStructs.Price","name":"price","type":"tuple"}],"stateMutability":"view","type":"function"},{"inputs":[{"internalType":"bytes32","name":"id","type":"bytes32"},{"internalType":"uint256","name":"age","type":"uint256"}],"name":"getPriceNoOlderThan","outputs":[{"components":[{"internalType":"int64","name":"price","type":"int64"},{"internalType":"uint64","name":"conf","type":"uint64"},{"internalType":"int32","name":"expo","type":"int32"},{"internalType":"uint256","name":"publishTime","type":"uint256"}],"internalType":"struct PythStructs.Price","name":"price","type":"tuple"}],"stateMutability":"view","type":"function"},{"inputs":[{"internalType":"bytes32","name":"id","type":"bytes32"}],"name":"getPriceUnsafe","outputs":[{"components":[{"internalType":"int64","name":"price","type":"int64"},{"internalType":"uint64","name":"conf","type":"uint64"},{"internalType":"int32","name":"expo","type":"int32"},{"internalType":"uint256","name":"publishTime","type":"uint256"}],"internalType":"struct PythStructs.Price","name":"price","type":"tuple"}],"stateMutability":"view","type":"function"},{"inputs":[{"internalType":"bytes[]","name":"updateData","type":"bytes[]"}],"name":"getUpdateFee","outputs":[{"internalType":"uint256","name":"","type":"uint256"}],"stateMutability":"view","type":"function"},{"inputs":[],"name":"getValidTimePeriod","outputs":[{"internalType":"uint256","name":"","type":"uint256"}],"stateMutability":"view","type":"function"},{"inputs":[{"internalType":"bytes[]","name":"updateData","type":"bytes[]"},{"internalType":"bytes32[]","name":"priceIds","type":"bytes32[]"},{"internalType":"uint64","name":"minPublishTime","type":"uint64"},{"internalType":"uint64","name":"maxPublishTime","type":"uint64"}],"name":"parsePriceFeedUpdates","outputs":[{"components":[{"internalType":"bytes32","name":"id","type":"bytes32"},{"components":[{"internalType":"int64","name":"price","type":"int64"},{"internalType":"uint64","name":"conf","type":"uint64"},{"internalType":"int32","name":"expo","type":"int32"},{"internalType":"uint256","name":"publishTime","type":"uint256"}],"internalType":"struct PythStructs.Price","name":"price","type":"tuple"},{"components":[{"internalType":"int64","name":"price","type":"int64"},{"internalType":"uint64","name":"conf","type":"uint64"},{"internalType":"int32","name":"expo","type":"int32"},{"internalType":"uint256","name":"publishTime","type":"uint256"}],"internalType":"struct PythStructs.Price","name":"emaPrice","type":"tuple"}],"internalType":"struct PythStructs.PriceFeed[]","name":"feeds","type":"tuple[]"}],"stateMutability":"payable","type":"function"},{"inputs":[{"internalType":"bytes32","name":"id","type":"bytes32"}],"name":"priceFeedExists","outputs":[{"internalType":"bool","name":"","type":"bool"}],"stateMutability":"view","type":"function"},{"inputs":[{"internalType":"bytes32","name":"id","type":"bytes32"}],"name":"queryPriceFeed","outputs":[{"components":[{"internalType":"bytes32","name":"id","type":"bytes32"},{"components":[{"internalType":"int64","name":"price","type":"int64"},{"internalType":"uint64","name":"conf","type":"uint64"},{"internalType":"int32","name":"expo","type":"int32"},{"internalType":"uint256","name":"publishTime","type":"uint256"}],"internalType":"struct PythStructs.Price","name":"price","type":"tuple"},{"components":[{"internalType":"int64","name":"price","type":"int64"},{"internalType":"uint64","name":"conf","type":"uint64"},{"internalType":"int32","name":"expo","type":"int32"},{"internalType":"uint256","name":"publishTime","type":"uint256"}],"internalType":"struct PythStructs.Price","name":"emaPrice","type":"tuple"}],"internalType":"struct PythStructs.PriceFeed","name":"","type":"tuple"}],"stateMutability":"view","type":"function"},{"inputs":[],"name":"singleUpdateFeeInWei","outputs":[{"internalType":"uint256","name":"","type":"uint256"}],"stateMutability":"view","type":"function"},{"inputs":[{"internalType":"bytes[]","name":"updateData","type":"bytes[]"}],"name":"updatePriceFeeds","outputs":[],"stateMutability":"payable","type":"function"},{"inputs":[{"internalType":"bytes[]","name":"updateData","type":"bytes[]"},{"internalType":"bytes32[]","name":"priceIds","type":"bytes32[]"},{"internalType":"uint64[]","name":"publishTimes","type":"uint64[]"}],"name":"updatePriceFeedsIfNecessary","outputs":[],"stateMutability":"payable","type":"function"},{"inputs":[],"name":"validTimePeriod","outputs":[{"internalType":"uint256","name":"","type":"uint256"}],"stateMutability":"view","type":"function"}],"evm":{"bytecode":{"linkReferences":{},"object":"6080604052348015600f57600080fd5b506040516110fd3803806110fd833981016040819052602c916039565b600391909155600255605c565b60008060408385031215604b57600080fd5b505080516020909101519092909150565b6110928061006b6000396000f3fe6080604052600436106100f35760003560e01c8063b5dcc9111161008a578063cbdaeaba11610059578063cbdaeaba146102c0578063d47eed45146102d6578063e18910a3146102f6578063ef9e5e281461030b57600080fd5b8063b5dcc9111461021f578063b5ec02611461023f578063b9256d281461027e578063caaf43f11461029357600080fd5b80639474f45b116100c65780639474f45b1461019257806396834ad3146101b257806396db6327146101d2578063a4ae35e0146101ff57600080fd5b806331d98b3f146100f85780634716e9c51461012e57806348b6404d1461014e578063711a2e2814610172575b600080fd5b34801561010457600080fd5b50610118610113366004610ab0565b61031e565b6040516101259190610afe565b60405180910390f35b61014161013c366004610b73565b610339565b6040516101259190610c34565b34801561015a57600080fd5b5061016460025481565b604051908152602001610125565b34801561017e57600080fd5b5061011861018d366004610c83565b610517565b34801561019e57600080fd5b506101186101ad366004610ab0565b61055a565b3480156101be57600080fd5b506101186101cd366004610ab0565b610575565b3480156101de57600080fd5b506101f26101ed366004610cc9565b610590565b6040516101259190610d48565b34801561020b57600080fd5b5061011861021a366004610c83565b61062f565b34801561022b57600080fd5b5061011861023a366004610ab0565b610640565b34801561024b57600080fd5b5061026e61025a366004610ab0565b600090815260208190526040902054151590565b6040519015158152602001610125565b61029161028c366004610d96565b610655565b005b34801561029f57600080fd5b506102b36102ae366004610ab0565b610667565b6040516101259190610e39565b3480156102cc57600080fd5b5061016460035481565b3480156102e257600080fd5b506101646102f1366004610e48565b610745565b34801561030257600080fd5b50600354610164565b610291610319366004610e48565b61075d565b610326610a5c565b6103338261021a60035490565b92915050565b6060836001600160401b0381111561035357610353610e89565b60405190808252806020026020018201604052801561038c57816020015b610379610a83565b8152602001906001900390816103715790505b50905060005b8481101561050c5760005b878110156104ae578888828181106103b7576103b7610e9f565b90506020028101906103c99190610eb5565b8101906103d69190610f81565b8383815181106103e8576103e8610e9f565b602002602001018190525086868381811061040557610405610e9f565b9050602002013583838151811061041e5761041e610e9f565b602002602001015160000151036104a657600083838151811061044357610443610e9f565b602002602001015160200151606001519050856001600160401b031681101580156104775750846001600160401b03168111155b1561048257506104ae565b6000801b84848151811061049857610498610e9f565b602090810291909101015152505b60010161039d565b508585828181106104c1576104c1610e9f565b905060200201358282815181106104da576104da610e9f565b60200260200101516000015114610504576040516345805f5d60e01b815260040160405180910390fd5b600101610392565b509695505050505050565b61051f610a5c565b6105288361055a565b905081816060015161053a9190611013565b42111561033357604051630cd5fa0760e11b815260040160405180910390fd5b610562610a5c565b61056b82610667565b6040015192915050565b61057d610a5c565b61058682610667565b6020015192915050565b606061059a610a83565b8881526020808201805160078b810b90915281516001600160401b03808c1691850191909152825160038b900b6040918201819052935188831660609182018190528288018051958d900b9095528451938b169387019390935283518201949094529151909201919091525161061291839101610e39565b604051602081830303815290604052915050979650505050505050565b610637610a5c565b61052883610575565b610648610a5c565b6103338261018d60035490565b61065f868661075d565b505050505050565b61066f610a83565b600082815260208190526040812054900361069d57604051630295d7cd60e31b815260040160405180910390fd5b5060009081526020818152604091829020825160608082018552825482528451608080820187526001850154600781810b84526001600160401b03680100000000000000008084048216868b0152600160801b93849004600390810b878d015260028a015487890152888b01969096528a519485018b52858901549283900b855282041697830197909752909504900b84860152600490920154918301919091529182015290565b600254600090610756908390611026565b9392505050565b60006107698383610745565b90508034101561078b5760405162976f7560e21b815260040160405180910390fd5b600160005b838110156109cb5760008585838181106107ac576107ac610e9f565b90506020028101906107be9190610eb5565b8101906107cb9190610f81565b8051600090815260208181526040909120600201549082015160600151919250908110156109c15781600080846000015181526020019081526020016000206000820151816000015560208201518160010160008201518160000160006101000a8154816001600160401b03021916908360070b6001600160401b0316021790555060208201518160000160086101000a8154816001600160401b0302191690836001600160401b0316021790555060408201518160000160106101000a81548163ffffffff021916908360030b63ffffffff16021790555060608201518160010155505060408201518160030160008201518160000160006101000a8154816001600160401b03021916908360070b6001600160401b0316021790555060208201518160000160086101000a8154816001600160401b0302191690836001600160401b0316021790555060408201518160000160106101000a81548163ffffffff021916908360030b63ffffffff16021790555060608201518160010155505090505081600001517fd06a6b7f4918494b3719217d1802786c1f5112a6c1d88fe2cfec00b4584f6aec828460200151600001518560200151602001516040516109b8939291906001600160401b03938416815260079290920b6020830152909116604082015260600190565b60405180910390a25b5050600101610790565b506001546040805161ffff841681526001600160401b0390921660208301527f943f0e8a16c19895fb87cbeb1a349ed86d7f31923089dd36c1a1ed5e300f267b910160405180910390a1600180548190600090610a329083906001600160401b031661103d565b92506101000a8154816001600160401b0302191690836001600160401b0316021790555050505050565b60408051608081018252600080825260208201819052918101829052606081019190915290565b60408051606081019091526000815260208101610a9e610a5c565b8152602001610aab610a5c565b905290565b600060208284031215610ac257600080fd5b5035919050565b805160070b82526001600160401b036020820151166020830152604081015160030b6040830152606081015160608301525050565b608081016103338284610ac9565b60008083601f840112610b1e57600080fd5b5081356001600160401b03811115610b3557600080fd5b6020830191508360208260051b8501011115610b5057600080fd5b9250929050565b80356001600160401b0381168114610b6e57600080fd5b919050565b60008060008060008060808789031215610b8c57600080fd5b86356001600160401b03811115610ba257600080fd5b610bae89828a01610b0c565b90975095505060208701356001600160401b03811115610bcd57600080fd5b610bd989828a01610b0c565b9095509350610bec905060408801610b57565b9150610bfa60608801610b57565b90509295509295509295565b805182526020810151610c1c6020840182610ac9565b506040810151610c2f60a0840182610ac9565b505050565b602080825282518282018190526000918401906040840190835b81811015610c7857610c61838551610c06565b602093909301926101209290920191600101610c4e565b509095945050505050565b60008060408385031215610c9657600080fd5b50508035926020909101359150565b8035600781900b8114610b6e57600080fd5b8035600381900b8114610b6e57600080fd5b600080600080600080600060e0888a031215610ce457600080fd5b87359650610cf460208901610ca5565b9550610d0260408901610b57565b9450610d1060608901610cb7565b9350610d1e60808901610ca5565b9250610d2c60a08901610b57565b9150610d3a60c08901610b57565b905092959891949750929550565b602081526000825180602084015260005b81811015610d765760208186018101516040868401015201610d59565b506000604082850101526040601f19601f83011684010191505092915050565b60008060008060008060608789031215610daf57600080fd5b86356001600160401b03811115610dc557600080fd5b610dd189828a01610b0c565b90975095505060208701356001600160401b03811115610df057600080fd5b610dfc89828a01610b0c565b90955093505060408701356001600160401b03811115610e1b57600080fd5b610e2789828a01610b0c565b979a9699509497509295939492505050565b61012081016103338284610c06565b60008060208385031215610e5b57600080fd5b82356001600160401b03811115610e7157600080fd5b610e7d85828601610b0c565b90969095509350505050565b634e487b7160e01b600052604160045260246000fd5b634e487b7160e01b600052603260045260246000fd5b6000808335601e19843603018112610ecc57600080fd5b8301803591506001600160401b03821115610ee657600080fd5b602001915036819003821315610b5057600080fd5b600060808284031215610f0d57600080fd5b604051608081016001600160401b0381118282101715610f3d57634e487b7160e01b600052604160045260246000fd5b604052905080610f4c83610ca5565b8152610f5a60208401610b57565b6020820152610f6b60408401610cb7565b6040820152606092830135920191909152919050565b6000610120828403128015610f9557600080fd5b50604051600090606081016001600160401b0381118282101715610fc757634e487b7160e01b83526041600452602483fd5b60405283358082529150610fde8560208601610efb565b6020820152610ff08560a08601610efb565b6040820152949350505050565b634e487b7160e01b600052601160045260246000fd5b8082018082111561033357610333610ffd565b808202811582820484141761033357610333610ffd565b6001600160401b03818116838216019081111561033357610333610ffd56fea2646970667358221220dc5ce0a8a1f2ae58f3ff5cdccc28e421e6a66edec2e389cccbdd97b5e4f7971d64736f6c634300081c0033","opcodes":"PUSH1 0x80 PUSH1 0x40 MSTORE CALLVALUE DUP1 ISZERO PUSH1 0xF JUMPI PUSH1 0x0 DUP1 REVERT JUMPDEST POP PUSH1 0x40 MLOAD PUSH2 0x10FD CODESIZE SUB DUP1 PUSH2 0x10FD DUP4 CODECOPY DUP2 ADD PUSH1 0x40 DUP2 SWAP1 MSTORE PUSH1 0x2C SWAP2 PUSH1 0x39 JUMP JUMPDEST PUSH1 0x3 SWAP2 SWAP1 SWAP2 SSTORE PUSH1 0x2 SSTORE PUSH1 0x5C JUMP JUMPDEST PUSH1 0x0 DUP1 PUSH1 0x40 DUP4 DUP6 SUB SLT ISZERO PUSH1 0x4B JUMPI PUSH1 0x0 DUP1 REVERT JUMPDEST POP POP DUP1 MLOAD PUSH1 0x20 SWAP1 SWAP2 ADD MLOAD SWAP1 SWAP3 SWAP1 SWAP2 POP JUMP JUMPDEST PUSH2 0x1092 DUP1 PUSH2 0x6B PUSH1 0x0 CODECOPY PUSH1 0x0 RETURN INVALID PUSH1 0x80 PUSH1 0x40 MSTORE PUSH1 0x4 CALLDATASIZE LT PUSH2 0xF3 JUMPI PUSH1 0x0 CALLDATALOAD PUSH1 0xE0 SHR DUP1 PUSH4 0xB5DCC911 GT PUSH2 0x8A JUMPI DUP1 PUSH4 0xCBDAEABA GT PUSH2 0x59 JUMPI DUP1 PUSH4 0xCBDAEABA EQ PUSH2 0x2C0 JUMPI DUP1 PUSH4 0xD47EED45 EQ PUSH2 0x2D6 JUMPI DUP1 PUSH4 0xE18910A3 EQ PUSH2 0x2F6 JUMPI DUP1 PUSH4 0xEF9E5E28 EQ PUSH2 0x30B JUMPI PUSH1 0x0 DUP1 REVERT JUMPDEST DUP1 PUSH4 0xB5DCC911 EQ PUSH2 0x21F JUMPI DUP1 PUSH4 0xB5EC0261 EQ PUSH2 0x23F JUMPI DUP1 PUSH4 0xB9256D28 EQ PUSH2 0x27E JUMPI DUP1 PUSH4 0xCAAF43F1 EQ PUSH2 0x293 JUMPI PUSH1 0x0 DUP1 REVERT JUMPDEST DUP1 PUSH4 0x9474F45B GT PUSH2 0xC6 JUMPI DUP1 PUSH4 0x9474F45B EQ PUSH2 0x192 JUMPI DUP1 PUSH4 0x96834AD3 EQ PUSH2 0x1B2 JUMPI DUP1 PUSH4 0x96DB6327 EQ PUSH2 0x1D2 JUMPI DUP1 PUSH4 0xA4AE35E0 EQ PUSH2 0x1FF JUMPI PUSH1 0x0 DUP1 REVERT JUMPDEST DUP1 PUSH4 0x31D98B3F EQ PUSH2 0xF8 JUMPI DUP1 PUSH4 0x4716E9C5 EQ PUSH2 0x12E JUMPI DUP1 PUSH4 0x48B6404D EQ PUSH2 0x14E JUMPI DUP1 PUSH4 0x711A2E28 EQ PUSH2 0x172 JUMPI JUMPDEST PUSH1 0x0 DUP1 REVERT JUMPDEST CALLVALUE DUP1 ISZERO PUSH2 0x104 JUMPI PUSH1 0x0 DUP1 REVERT JUMPDEST POP PUSH2 0x118 PUSH2 0x113 CALLDATASIZE PUSH1 0x4 PUSH2 0xAB0 JUMP JUMPDEST PUSH2 0x31E JUMP JUMPDEST PUSH1 0x40 MLOAD PUSH2 0x125 SWAP2 SWAP1 PUSH2 0xAFE JUMP JUMPDEST PUSH1 0x40 MLOAD DUP1 SWAP2 SUB SWAP1 RETURN JUMPDEST PUSH2 0x141 PUSH2 0x13C CALLDATASIZE PUSH1 0x4 PUSH2 0xB73 JUMP JUMPDEST PUSH2 0x339 JUMP JUMPDEST PUSH1 0x40 MLOAD PUSH2 0x125 SWAP2 SWAP1 PUSH2 0xC34 JUMP JUMPDEST CALLVALUE DUP1 ISZERO PUSH2 0x15A JUMPI PUSH1 0x0 DUP1 REVERT JUMPDEST POP PUSH2 0x164 PUSH1 0x2 SLOAD DUP2 JUMP JUMPDEST PUSH1 0x40 MLOAD SWAP1 DUP2 MSTORE PUSH1 0x20 ADD PUSH2 0x125 JUMP JUMPDEST CALLVALUE DUP1 ISZERO PUSH2 0x17E JUMPI PUSH1 0x0 DUP1 REVERT JUMPDEST POP PUSH2 0x118 PUSH2 0x18D CALLDATASIZE PUSH1 0x4 PUSH2 0xC83 JUMP JUMPDEST PUSH2 0x517 JUMP JUMPDEST CALLVALUE DUP1 ISZERO PUSH2 0x19E JUMPI PUSH1 0x0 DUP1 REVERT JUMPDEST POP PUSH2 0x118 PUSH2 0x1AD CALLDATASIZE PUSH1 0x4 PUSH2 0xAB0 JUMP JUMPDEST PUSH2 0x55A JUMP JUMPDEST CALLVALUE DUP1 ISZERO PUSH2 0x1BE JUMPI PUSH1 0x0 DUP1 REVERT JUMPDEST POP PUSH2 0x118 PUSH2 0x1CD CALLDATASIZE PUSH1 0x4 PUSH2 0xAB0 JUMP JUMPDEST PUSH2 0x575 JUMP JUMPDEST CALLVALUE DUP1 ISZERO PUSH2 0x1DE JUMPI PUSH1 0x0 DUP1 REVERT JUMPDEST POP PUSH2 0x1F2 PUSH2 0x1ED CALLDATASIZE PUSH1 0x4 PUSH2 0xCC9 JUMP JUMPDEST PUSH2 0x590 JUMP JUMPDEST PUSH1 0x40 MLOAD PUSH2 0x125 SWAP2 SWAP1 PUSH2 0xD48 JUMP JUMPDEST CALLVALUE DUP1 ISZERO PUSH2 0x20B JUMPI PUSH1 0x0 DUP1 REVERT JUMPDEST POP PUSH2 0x118 PUSH2 0x21A CALLDATASIZE PUSH1 0x4 PUSH2 0xC83 JUMP JUMPDEST PUSH2 0x62F JUMP JUMPDEST CALLVALUE DUP1 ISZERO PUSH2 0x22B JUMPI PUSH1 0x0 DUP1 REVERT JUMPDEST POP PUSH2 0x118 PUSH2 0x23A CALLDATASIZE PUSH1 0x4 PUSH2 0xAB0 JUMP JUMPDEST PUSH2 0x640 JUMP JUMPDEST CALLVALUE DUP1 ISZERO PUSH2 0x24B JUMPI PUSH1 0x0 DUP1 REVERT JUMPDEST POP PUSH2 0x26E PUSH2 0x25A CALLDATASIZE PUSH1 0x4 PUSH2 0xAB0 JUMP JUMPDEST PUSH1 0x0 SWAP1 DUP2 MSTORE PUSH1 0x20 DUP2 SWAP1 MSTORE PUSH1 0x40 SWAP1 KECCAK256 SLOAD ISZERO ISZERO SWAP1 JUMP JUMPDEST PUSH1 0x40 MLOAD SWAP1 ISZERO ISZERO DUP2 MSTORE PUSH1 0x20 ADD PUSH2 0x125 JUMP JUMPDEST PUSH2 0x291 PUSH2 0x28C CALLDATASIZE PUSH1 0x4 PUSH2 0xD96 JUMP JUMPDEST PUSH2 0x655 JUMP JUMPDEST STOP JUMPDEST CALLVALUE DUP1 ISZERO PUSH2 0x29F JUMPI PUSH1 0x0 DUP1 REVERT JUMPDEST POP PUSH2 0x2B3 PUSH2 0x2AE CALLDATASIZE PUSH1 0x4 PUSH2 0xAB0 JUMP JUMPDEST PUSH2 0x667 JUMP JUMPDEST PUSH1 0x40 MLOAD PUSH2 0x125 SWAP2 SWAP1 PUSH2 0xE39 JUMP JUMPDEST CALLVALUE DUP1 ISZERO PUSH2 0x2CC JUMPI PUSH1 0x0 DUP1 REVERT JUMPDEST POP PUSH2 0x164 PUSH1 0x3 SLOAD DUP2 JUMP JUMPDEST CALLVALUE DUP1 ISZERO PUSH2 0x2E2 JUMPI PUSH1 0x0 DUP1 REVERT JUMPDEST POP PUSH2 0x164 PUSH2 0x2F1 CALLDATASIZE PUSH1 0x4 PUSH2 0xE48 JUMP JUMPDEST PUSH2 0x745 JUMP JUMPDEST CALLVALUE DUP1 ISZERO PUSH2 0x302 JUMPI PUSH1 0x0 DUP1 REVERT JUMPDEST POP PUSH1 0x3 SLOAD PUSH2 0x164 JUMP JUMPDEST PUSH2 0x291 PUSH2 0x319 CALLDATASIZE PUSH1 0x4 PUSH2 0xE48 JUMP JUMPDEST PUSH2 0x75D JUMP JUMPDEST PUSH2 0x326 PUSH2 0xA5C JUMP JUMPDEST PUSH2 0x333 DUP3 PUSH2 0x21A PUSH1 0x3 SLOAD SWAP1 JUMP JUMPDEST SWAP3 SWAP2 POP POP JUMP JUMPDEST PUSH1 0x60 DUP4 PUSH1 0x1 PUSH1 0x1 PUSH1 0x40 SHL SUB DUP2 GT ISZERO PUSH2 0x353 JUMPI PUSH2 0x353 PUSH2 0xE89 JUMP JUMPDEST PUSH1 0x40 MLOAD SWAP1 DUP1 DUP3 MSTORE DUP1 PUSH1 0x20 MUL PUSH1 0x20 ADD DUP3 ADD PUSH1 0x40 MSTORE DUP1 ISZERO PUSH2 0x38C JUMPI DUP2 PUSH1 0x20 ADD JUMPDEST PUSH2 0x379 PUSH2 0xA83 JUMP JUMPDEST DUP2 MSTORE PUSH1 0x20 ADD SWAP1 PUSH1 0x1 SWAP1 SUB SWAP1 DUP2 PUSH2 0x371 JUMPI SWAP1 POP JUMPDEST POP SWAP1 POP PUSH1 0x0 JUMPDEST DUP5 DUP2 LT ISZERO PUSH2 0x50C JUMPI PUSH1 0x0 JUMPDEST DUP8 DUP2 LT ISZERO PUSH2 0x4AE JUMPI DUP9 DUP9 DUP3 DUP2 DUP2 LT PUSH2 0x3B7 JUMPI PUSH2 0x3B7 PUSH2 0xE9F JUMP JUMPDEST SWAP1 POP PUSH1 0x20 MUL DUP2 ADD SWAP1 PUSH2 0x3C9 SWAP2 SWAP1 PUSH2 0xEB5 JUMP JUMPDEST DUP2 ADD SWAP1 PUSH2 0x3D6 SWAP2 SWAP1 PUSH2 0xF81 JUMP JUMPDEST DUP4 DUP4 DUP2 MLOAD DUP2 LT PUSH2 0x3E8 JUMPI PUSH2 0x3E8 PUSH2 0xE9F JUMP JUMPDEST PUSH1 0x20 MUL PUSH1 0x20 ADD ADD DUP2 SWAP1 MSTORE POP DUP7 DUP7 DUP4 DUP2 DUP2 LT PUSH2 0x405 JUMPI PUSH2 0x405 PUSH2 0xE9F JUMP JUMPDEST SWAP1 POP PUSH1 0x20 MUL ADD CALLDATALOAD DUP4 DUP4 DUP2 MLOAD DUP2 LT PUSH2 0x41E JUMPI PUSH2 0x41E PUSH2 0xE9F JUMP JUMPDEST PUSH1 0x20 MUL PUSH1 0x20 ADD ADD MLOAD PUSH1 0x0 ADD MLOAD SUB PUSH2 0x4A6 JUMPI PUSH1 0x0 DUP4 DUP4 DUP2 MLOAD DUP2 LT PUSH2 0x443 JUMPI PUSH2 0x443 PUSH2 0xE9F JUMP JUMPDEST PUSH1 0x20 MUL PUSH1 0x20 ADD ADD MLOAD PUSH1 0x20 ADD MLOAD PUSH1 0x60 ADD MLOAD SWAP1 POP DUP6 PUSH1 0x1 PUSH1 0x1 PUSH1 0x40 SHL SUB AND DUP2 LT ISZERO DUP1 ISZERO PUSH2 0x477 JUMPI POP DUP5 PUSH1 0x1 PUSH1 0x1 PUSH1 0x40 SHL SUB AND DUP2 GT ISZERO JUMPDEST ISZERO PUSH2 0x482 JUMPI POP PUSH2 0x4AE JUMP JUMPDEST PUSH1 0x0 DUP1 SHL DUP5 DUP5 DUP2 MLOAD DUP2 LT PUSH2 0x498 JUMPI PUSH2 0x498 PUSH2 0xE9F JUMP JUMPDEST PUSH1 0x20 SWAP1 DUP2 MUL SWAP2 SWAP1 SWAP2 ADD ADD MLOAD MSTORE POP JUMPDEST PUSH1 0x1 ADD PUSH2 0x39D JUMP JUMPDEST POP DUP6 DUP6 DUP3 DUP2 DUP2 LT PUSH2 0x4C1 JUMPI PUSH2 0x4C1 PUSH2 0xE9F JUMP JUMPDEST SWAP1 POP PUSH1 0x20 MUL ADD CALLDATALOAD DUP3 DUP3 DUP2 MLOAD DUP2 LT PUSH2 0x4DA JUMPI PUSH2 0x4DA PUSH2 0xE9F JUMP JUMPDEST PUSH1 0x20 MUL PUSH1 0x20 ADD ADD MLOAD PUSH1 0x0 ADD MLOAD EQ PUSH2 0x504 JUMPI PUSH1 0x40 MLOAD PUSH4 0x45805F5D PUSH1 0xE0 SHL DUP2 MSTORE PUSH1 0x4 ADD PUSH1 0x40 MLOAD DUP1 SWAP2 SUB SWAP1 REVERT JUMPDEST PUSH1 0x1 ADD PUSH2 0x392 JUMP JUMPDEST POP SWAP7 SWAP6 POP POP POP POP POP POP JUMP JUMPDEST PUSH2 0x51F PUSH2 0xA5C JUMP JUMPDEST PUSH2 0x528 DUP4 PUSH2 0x55A JUMP JUMPDEST SWAP1 POP DUP2 DUP2 PUSH1 0x60 ADD MLOAD PUSH2 0x53A SWAP2 SWAP1 PUSH2 0x1013 JUMP JUMPDEST TIMESTAMP GT ISZERO PUSH2 0x333 JUMPI PUSH1 0x40 MLOAD PUSH4 0xCD5FA07 PUSH1 0xE1 SHL DUP2 MSTORE PUSH1 0x4 ADD PUSH1 0x40 MLOAD DUP1 SWAP2 SUB SWAP1 REVERT JUMPDEST PUSH2 0x562 PUSH2 0xA5C JUMP JUMPDEST PUSH2 0x56B DUP3 PUSH2 0x667 JUMP JUMPDEST PUSH1 0x40 ADD MLOAD SWAP3 SWAP2 POP POP JUMP JUMPDEST PUSH2 0x57D PUSH2 0xA5C JUMP JUMPDEST PUSH2 0x586 DUP3 PUSH2 0x667 JUMP JUMPDEST PUSH1 0x20 ADD MLOAD SWAP3 SWAP2 POP POP JUMP JUMPDEST PUSH1 0x60 PUSH2 0x59A PUSH2 0xA83 JUMP JUMPDEST DUP9 DUP2 MSTORE PUSH1 0x20 DUP1 DUP3 ADD DUP1 MLOAD PUSH1 0x7 DUP12 DUP2 SIGNEXTEND SWAP1 SWAP2 MSTORE DUP2 MLOAD PUSH1 0x1 PUSH1 0x1 PUSH1 0x40 SHL SUB DUP1 DUP13 AND SWAP2 DUP6 ADD SWAP2 SWAP1 SWAP2 MSTORE DUP3 MLOAD PUSH1 0x3 DUP12 SWAP1 SIGNEXTEND PUSH1 0x40 SWAP2 DUP3 ADD DUP2 SWAP1 MSTORE SWAP4 MLOAD DUP9 DUP4 AND PUSH1 0x60 SWAP2 DUP3 ADD DUP2 SWAP1 MSTORE DUP3 DUP9 ADD DUP1 MLOAD SWAP6 DUP14 SWAP1 SIGNEXTEND SWAP1 SWAP6 MSTORE DUP5 MLOAD SWAP4 DUP12 AND SWAP4 DUP8 ADD SWAP4 SWAP1 SWAP4 MSTORE DUP4 MLOAD DUP3 ADD SWAP5 SWAP1 SWAP5 MSTORE SWAP2 MLOAD SWAP1 SWAP3 ADD SWAP2 SWAP1 SWAP2 MSTORE MLOAD PUSH2 0x612 SWAP2 DUP4 SWAP2 ADD PUSH2 0xE39 JUMP JUMPDEST PUSH1 0x40 MLOAD PUSH1 0x20 DUP2 DUP4 SUB SUB DUP2 MSTORE SWAP1 PUSH1 0x40 MSTORE SWAP2 POP POP SWAP8 SWAP7 POP POP POP POP POP POP POP JUMP JUMPDEST PUSH2 0x637 PUSH2 0xA5C JUMP JUMPDEST PUSH2 0x528 DUP4 PUSH2 0x575 JUMP JUMPDEST PUSH2 0x648 PUSH2 0xA5C JUMP JUMPDEST PUSH2 0x333 DUP3 PUSH2 0x18D PUSH1 0x3 SLOAD SWAP1 JUMP JUMPDEST PUSH2 0x65F DUP7 DUP7 PUSH2 0x75D JUMP JUMPDEST POP POP POP POP POP POP JUMP JUMPDEST PUSH2 0x66F PUSH2 0xA83 JUMP JUMPDEST PUSH1 0x0 DUP3 DUP2 MSTORE PUSH1 0x20 DUP2 SWAP1 MSTORE PUSH1 0x40 DUP2 KECCAK256 SLOAD SWAP1 SUB PUSH2 0x69D JUMPI PUSH1 0x40 MLOAD PUSH4 0x295D7CD PUSH1 0xE3 SHL DUP2 MSTORE PUSH1 0x4 ADD PUSH1 0x40 MLOAD DUP1 SWAP2 SUB SWAP1 REVERT JUMPDEST POP PUSH1 0x0 SWAP1 DUP2 MSTORE PUSH1 0x20 DUP2 DUP2 MSTORE PUSH1 0x40 SWAP2 DUP3 SWAP1 KECCAK256 DUP3 MLOAD PUSH1 0x60 DUP1 DUP3 ADD DUP6 MSTORE DUP3 SLOAD DUP3 MSTORE DUP5 MLOAD PUSH1 0x80 DUP1 DUP3 ADD DUP8 MSTORE PUSH1 0x1 DUP6 ADD SLOAD PUSH1 0x7 DUP2 DUP2 SIGNEXTEND DUP5 MSTORE PUSH1 0x1 PUSH1 0x1 PUSH1 0x40 SHL SUB PUSH9 0x10000000000000000 DUP1 DUP5 DIV DUP3 AND DUP7 DUP12 ADD MSTORE PUSH1 0x1 PUSH1 0x80 SHL SWAP4 DUP5 SWAP1 DIV PUSH1 0x3 SWAP1 DUP2 SIGNEXTEND DUP8 DUP14 ADD MSTORE PUSH1 0x2 DUP11 ADD SLOAD DUP8 DUP10 ADD MSTORE DUP9 DUP12 ADD SWAP7 SWAP1 SWAP7 MSTORE DUP11 MLOAD SWAP5 DUP6 ADD DUP12 MSTORE DUP6 DUP10 ADD SLOAD SWAP3 DUP4 SWAP1 SIGNEXTEND DUP6 MSTORE DUP3 DIV AND SWAP8 DUP4 ADD SWAP8 SWAP1 SWAP8 MSTORE SWAP1 SWAP6 DIV SWAP1 SIGNEXTEND DUP5 DUP7 ADD MSTORE PUSH1 0x4 SWAP1 SWAP3 ADD SLOAD SWAP2 DUP4 ADD SWAP2 SWAP1 SWAP2 MSTORE SWAP2 DUP3 ADD MSTORE SWAP1 JUMP JUMPDEST PUSH1 0x2 SLOAD PUSH1 0x0 SWAP1 PUSH2 0x756 SWAP1 DUP4 SWAP1 PUSH2 0x1026 JUMP JUMPDEST SWAP4 SWAP3 POP POP POP JUMP JUMPDEST PUSH1 0x0 PUSH2 0x769 DUP4 DUP4 PUSH2 0x745 JUMP JUMPDEST SWAP1 POP DUP1 CALLVALUE LT ISZERO PUSH2 0x78B JUMPI PUSH1 0x40 MLOAD PUSH3 0x976F75 PUSH1 0xE2 SHL DUP2 MSTORE PUSH1 0x4 ADD PUSH1 0x40 MLOAD DUP1 SWAP2 SUB SWAP1 REVERT JUMPDEST PUSH1 0x1 PUSH1 0x0 JUMPDEST DUP4 DUP2 LT ISZERO PUSH2 0x9CB JUMPI PUSH1 0x0 DUP6 DUP6 DUP4 DUP2 DUP2 LT PUSH2 0x7AC JUMPI PUSH2 0x7AC PUSH2 0xE9F JUMP JUMPDEST SWAP1 POP PUSH1 0x20 MUL DUP2 ADD SWAP1 PUSH2 0x7BE SWAP2 SWAP1 PUSH2 0xEB5 JUMP JUMPDEST DUP2 ADD SWAP1 PUSH2 0x7CB SWAP2 SWAP1 PUSH2 0xF81 JUMP JUMPDEST DUP1 MLOAD PUSH1 0x0 SWAP1 DUP2 MSTORE PUSH1 0x20 DUP2 DUP2 MSTORE PUSH1 0x40 SWAP1 SWAP2 KECCAK256 PUSH1 0x2 ADD SLOAD SWAP1 DUP3 ADD MLOAD PUSH1 0x60 ADD MLOAD SWAP2 SWAP3 POP SWAP1 DUP2 LT ISZERO PUSH2 0x9C1 JUMPI DUP2 PUSH1 0x0 DUP1 DUP5 PUSH1 0x0 ADD MLOAD DUP2 MSTORE PUSH1 0x20 ADD SWAP1 DUP2 MSTORE PUSH1 0x20 ADD PUSH1 0x0 KECCAK256 PUSH1 0x0 DUP3 ADD MLOAD DUP2 PUSH1 0x0 ADD SSTORE PUSH1 0x20 DUP3 ADD MLOAD DUP2 PUSH1 0x1 ADD PUSH1 0x0 DUP3 ADD MLOAD DUP2 PUSH1 0x0 ADD PUSH1 0x0 PUSH2 0x100 EXP DUP2 SLOAD DUP2 PUSH1 0x1 PUSH1 0x1 PUSH1 0x40 SHL SUB MUL NOT AND SWAP1 DUP4 PUSH1 0x7 SIGNEXTEND PUSH1 0x1 PUSH1 0x1 PUSH1 0x40 SHL SUB AND MUL OR SWAP1 SSTORE POP PUSH1 0x20 DUP3 ADD MLOAD DUP2 PUSH1 0x0 ADD PUSH1 0x8 PUSH2 0x100 EXP DUP2 SLOAD DUP2 PUSH1 0x1 PUSH1 0x1 PUSH1 0x40 SHL SUB MUL NOT AND SWAP1 DUP4 PUSH1 0x1 PUSH1 0x1 PUSH1 0x40 SHL SUB AND MUL OR SWAP1 SSTORE POP PUSH1 0x40 DUP3 ADD MLOAD DUP2 PUSH1 0x0 ADD PUSH1 0x10 PUSH2 0x100 EXP DUP2 SLOAD DUP2 PUSH4 0xFFFFFFFF MUL NOT AND SWAP1 DUP4 PUSH1 0x3 SIGNEXTEND PUSH4 0xFFFFFFFF AND MUL OR SWAP1 SSTORE POP PUSH1 0x60 DUP3 ADD MLOAD DUP2 PUSH1 0x1 ADD SSTORE POP POP PUSH1 0x40 DUP3 ADD MLOAD DUP2 PUSH1 0x3 ADD PUSH1 0x0 DUP3 ADD MLOAD DUP2 PUSH1 0x0 ADD PUSH1 0x0 PUSH2 0x100 EXP DUP2 SLOAD DUP2 PUSH1 0x1 PUSH1 0x1 PUSH1 0x40 SHL SUB MUL NOT AND SWAP1 DUP4 PUSH1 0x7 SIGNEXTEND PUSH1 0x1 PUSH1 0x1 PUSH1 0x40 SHL SUB AND MUL OR SWAP1 SSTORE POP PUSH1 0x20 DUP3 ADD MLOAD DUP2 PUSH1 0x0 ADD PUSH1 0x8 PUSH2 0x100 EXP DUP2 SLOAD DUP2 PUSH1 0x1 PUSH1 0x1 PUSH1 0x40 SHL SUB MUL NOT AND SWAP1 DUP4 PUSH1 0x1 PUSH1 0x1 PUSH1 0x40 SHL SUB AND MUL OR SWAP1 SSTORE POP PUSH1 0x40 DUP3 ADD MLOAD DUP2 PUSH1 0x0 ADD PUSH1 0x10 PUSH2 0x100 EXP DUP2 SLOAD DUP2 PUSH4 0xFFFFFFFF MUL NOT AND SWAP1 DUP4 PUSH1 0x3 SIGNEXTEND PUSH4 0xFFFFFFFF AND MUL OR SWAP1 SSTORE POP PUSH1 0x60 DUP3 ADD MLOAD DUP2 PUSH1 0x1 ADD SSTORE POP POP SWAP1 POP POP DUP2 PUSH1 0x0 ADD MLOAD PUSH32 0xD06A6B7F4918494B3719217D1802786C1F5112A6C1D88FE2CFEC00B4584F6AEC DUP3 DUP5 PUSH1 0x20 ADD MLOAD PUSH1 0x0 ADD MLOAD DUP6 PUSH1 0x20 ADD MLOAD PUSH1 0x20 ADD MLOAD PUSH1 0x40 MLOAD PUSH2 0x9B8 SWAP4 SWAP3 SWAP2 SWAP1 PUSH1 0x1 PUSH1 0x1 PUSH1 0x40 SHL SUB SWAP4 DUP5 AND DUP2 MSTORE PUSH1 0x7 SWAP3 SWAP1 SWAP3 SIGNEXTEND PUSH1 0x20 DUP4 ADD MSTORE SWAP1 SWAP2 AND PUSH1 0x40 DUP3 ADD MSTORE PUSH1 0x60 ADD SWAP1 JUMP JUMPDEST PUSH1 0x40 MLOAD DUP1 SWAP2 SUB SWAP1 LOG2 JUMPDEST POP POP PUSH1 0x1 ADD PUSH2 0x790 JUMP JUMPDEST POP PUSH1 0x1 SLOAD PUSH1 0x40 DUP1 MLOAD PUSH2 0xFFFF DUP5 AND DUP2 MSTORE PUSH1 0x1 PUSH1 0x1 PUSH1 0x40 SHL SUB SWAP1 SWAP3 AND PUSH1 0x20 DUP4 ADD MSTORE PUSH32 0x943F0E8A16C19895FB87CBEB1A349ED86D7F31923089DD36C1A1ED5E300F267B SWAP2 ADD PUSH1 0x40 MLOAD DUP1 SWAP2 SUB SWAP1 LOG1 PUSH1 0x1 DUP1 SLOAD DUP2 SWAP1 PUSH1 0x0 SWAP1 PUSH2 0xA32 SWAP1 DUP4 SWAP1 PUSH1 0x1 PUSH1 0x1 PUSH1 0x40 SHL SUB AND PUSH2 0x103D JUMP JUMPDEST SWAP3 POP PUSH2 0x100 EXP DUP2 SLOAD DUP2 PUSH1 0x1 PUSH1 0x1 PUSH1 0x40 SHL SUB MUL NOT AND SWAP1 DUP4 PUSH1 0x1 PUSH1 0x1 PUSH1 0x40 SHL SUB AND MUL OR SWAP1 SSTORE POP POP POP POP POP JUMP JUMPDEST PUSH1 0x40 DUP1 MLOAD PUSH1 0x80 DUP2 ADD DUP3 MSTORE PUSH1 0x0 DUP1 DUP3 MSTORE PUSH1 0x20 DUP3 ADD DUP2 SWAP1 MSTORE SWAP2 DUP2 ADD DUP3 SWAP1 MSTORE PUSH1 0x60 DUP2 ADD SWAP2 SWAP1 SWAP2 MSTORE SWAP1 JUMP JUMPDEST PUSH1 0x40 DUP1 MLOAD PUSH1 0x60 DUP2 ADD SWAP1 SWAP2 MSTORE PUSH1 0x0 DUP2 MSTORE PUSH1 0x20 DUP2 ADD PUSH2 0xA9E PUSH2 0xA5C JUMP JUMPDEST DUP2 MSTORE PUSH1 0x20 ADD PUSH2 0xAAB PUSH2 0xA5C JUMP JUMPDEST SWAP1 MSTORE SWAP1 JUMP JUMPDEST PUSH1 0x0 PUSH1 0x20 DUP3 DUP5 SUB SLT ISZERO PUSH2 0xAC2 JUMPI PUSH1 0x0 DUP1 REVERT JUMPDEST POP CALLDATALOAD SWAP2 SWAP1 POP JUMP JUMPDEST DUP1 MLOAD PUSH1 0x7 SIGNEXTEND DUP3 MSTORE PUSH1 0x1 PUSH1 0x1 PUSH1 0x40 SHL SUB PUSH1 0x20 DUP3 ADD MLOAD AND PUSH1 0x20 DUP4 ADD MSTORE PUSH1 0x40 DUP2 ADD MLOAD PUSH1 0x3 SIGNEXTEND PUSH1 0x40 DUP4 ADD MSTORE PUSH1 0x60 DUP2 ADD MLOAD PUSH1 0x60 DUP4 ADD MSTORE POP POP JUMP JUMPDEST PUSH1 0x80 DUP2 ADD PUSH2 0x333 DUP3 DUP5 PUSH2 0xAC9 JUMP JUMPDEST PUSH1 0x0 DUP1 DUP4 PUSH1 0x1F DUP5 ADD SLT PUSH2 0xB1E JUMPI PUSH1 0x0 DUP1 REVERT JUMPDEST POP DUP2 CALLDATALOAD PUSH1 0x1 PUSH1 0x1 PUSH1 0x40 SHL SUB DUP2 GT ISZERO PUSH2 0xB35 JUMPI PUSH1 0x0 DUP1 REVERT JUMPDEST PUSH1 0x20 DUP4 ADD SWAP2 POP DUP4 PUSH1 0x20 DUP3 PUSH1 0x5 SHL DUP6 ADD ADD GT ISZERO PUSH2 0xB50 JUMPI PUSH1 0x0 DUP1 REVERT JUMPDEST SWAP3 POP SWAP3 SWAP1 POP JUMP JUMPDEST DUP1 CALLDATALOAD PUSH1 0x1 PUSH1 0x1 PUSH1 0x40 SHL SUB DUP2 AND DUP2 EQ PUSH2 0xB6E JUMPI PUSH1 0x0 DUP1 REVERT JUMPDEST SWAP2 SWAP1 POP JUMP JUMPDEST PUSH1 0x0 DUP1 PUSH1 0x0 DUP1 PUSH1 0x0 DUP1 PUSH1 0x80 DUP8 DUP10 SUB SLT ISZERO PUSH2 0xB8C JUMPI PUSH1 0x0 DUP1 REVERT JUMPDEST DUP7 CALLDATALOAD PUSH1 0x1 PUSH1 0x1 PUSH1 0x40 SHL SUB DUP2 GT ISZERO PUSH2 0xBA2 JUMPI PUSH1 0x0 DUP1 REVERT JUMPDEST PUSH2 0xBAE DUP10 DUP3 DUP11 ADD PUSH2 0xB0C JUMP JUMPDEST SWAP1 SWAP8 POP SWAP6 POP POP PUSH1 0x20 DUP8 ADD CALLDATALOAD PUSH1 0x1 PUSH1 0x1 PUSH1 0x40 SHL SUB DUP2 GT ISZERO PUSH2 0xBCD JUMPI PUSH1 0x0 DUP1 REVERT JUMPDEST PUSH2 0xBD9 DUP10 DUP3 DUP11 ADD PUSH2 0xB0C JUMP JUMPDEST SWAP1 SWAP6 POP SWAP4 POP PUSH2 0xBEC SWAP1 POP PUSH1 0x40 DUP9 ADD PUSH2 0xB57 JUMP JUMPDEST SWAP2 POP PUSH2 0xBFA PUSH1 0x60 DUP9 ADD PUSH2 0xB57 JUMP JUMPDEST SWAP1 POP SWAP3 SWAP6 POP SWAP3 SWAP6 POP SWAP3 SWAP6 JUMP JUMPDEST DUP1 MLOAD DUP3 MSTORE PUSH1 0x20 DUP2 ADD MLOAD PUSH2 0xC1C PUSH1 0x20 DUP5 ADD DUP3 PUSH2 0xAC9 JUMP JUMPDEST POP PUSH1 0x40 DUP2 ADD MLOAD PUSH2 0xC2F PUSH1 0xA0 DUP5 ADD DUP3 PUSH2 0xAC9 JUMP JUMPDEST POP POP POP JUMP JUMPDEST PUSH1 0x20 DUP1 DUP3 MSTORE DUP3 MLOAD DUP3 DUP3 ADD DUP2 SWAP1 MSTORE PUSH1 0x0 SWAP2 DUP5 ADD SWAP1 PUSH1 0x40 DUP5 ADD SWAP1 DUP4 JUMPDEST DUP2 DUP2 LT ISZERO PUSH2 0xC78 JUMPI PUSH2 0xC61 DUP4 DUP6 MLOAD PUSH2 0xC06 JUMP JUMPDEST PUSH1 0x20 SWAP4 SWAP1 SWAP4 ADD SWAP3 PUSH2 0x120 SWAP3 SWAP1 SWAP3 ADD SWAP2 PUSH1 0x1 ADD PUSH2 0xC4E JUMP JUMPDEST POP SWAP1 SWAP6 SWAP5 POP POP POP POP POP JUMP JUMPDEST PUSH1 0x0 DUP1 PUSH1 0x40 DUP4 DUP6 SUB SLT ISZERO PUSH2 0xC96 JUMPI PUSH1 0x0 DUP1 REVERT JUMPDEST POP POP DUP1 CALLDATALOAD SWAP3 PUSH1 0x20 SWAP1 SWAP2 ADD CALLDATALOAD SWAP2 POP JUMP JUMPDEST DUP1 CALLDATALOAD PUSH1 0x7 DUP2 SWAP1 SIGNEXTEND DUP2 EQ PUSH2 0xB6E JUMPI PUSH1 0x0 DUP1 REVERT JUMPDEST DUP1 CALLDATALOAD PUSH1 0x3 DUP2 SWAP1 SIGNEXTEND DUP2 EQ PUSH2 0xB6E JUMPI PUSH1 0x0 DUP1 REVERT JUMPDEST PUSH1 0x0 DUP1 PUSH1 0x0 DUP1 PUSH1 0x0 DUP1 PUSH1 0x0 PUSH1 0xE0 DUP9 DUP11 SUB SLT ISZERO PUSH2 0xCE4 JUMPI PUSH1 0x0 DUP1 REVERT JUMPDEST DUP8 CALLDATALOAD SWAP7 POP PUSH2 0xCF4 PUSH1 0x20 DUP10 ADD PUSH2 0xCA5 JUMP JUMPDEST SWAP6 POP PUSH2 0xD02 PUSH1 0x40 DUP10 ADD PUSH2 0xB57 JUMP JUMPDEST SWAP5 POP PUSH2 0xD10 PUSH1 0x60 DUP10 ADD PUSH2 0xCB7 JUMP JUMPDEST SWAP4 POP PUSH2 0xD1E PUSH1 0x80 DUP10 ADD PUSH2 0xCA5 JUMP JUMPDEST SWAP3 POP PUSH2 0xD2C PUSH1 0xA0 DUP10 ADD PUSH2 0xB57 JUMP JUMPDEST SWAP2 POP PUSH2 0xD3A PUSH1 0xC0 DUP10 ADD PUSH2 0xB57 JUMP JUMPDEST SWAP1 POP SWAP3 SWAP6 SWAP9 SWAP2 SWAP5 SWAP8 POP SWAP3 SWAP6 POP JUMP JUMPDEST PUSH1 0x20 DUP2 MSTORE PUSH1 0x0 DUP3 MLOAD DUP1 PUSH1 0x20 DUP5 ADD MSTORE PUSH1 0x0 JUMPDEST DUP2 DUP2 LT ISZERO PUSH2 0xD76 JUMPI PUSH1 0x20 DUP2 DUP7 ADD DUP2 ADD MLOAD PUSH1 0x40 DUP7 DUP5 ADD ADD MSTORE ADD PUSH2 0xD59 JUMP JUMPDEST POP PUSH1 0x0 PUSH1 0x40 DUP3 DUP6 ADD ADD MSTORE PUSH1 0x40 PUSH1 0x1F NOT PUSH1 0x1F DUP4 ADD AND DUP5 ADD ADD SWAP2 POP POP SWAP3 SWAP2 POP POP JUMP JUMPDEST PUSH1 0x0 DUP1 PUSH1 0x0 DUP1 PUSH1 0x0 DUP1 PUSH1 0x60 DUP8 DUP10 SUB SLT ISZERO PUSH2 0xDAF JUMPI PUSH1 0x0 DUP1 REVERT JUMPDEST DUP7 CALLDATALOAD PUSH1 0x1 PUSH1 0x1 PUSH1 0x40 SHL SUB DUP2 GT ISZERO PUSH2 0xDC5 JUMPI PUSH1 0x0 DUP1 REVERT JUMPDEST PUSH2 0xDD1 DUP10 DUP3 DUP11 ADD PUSH2 0xB0C JUMP JUMPDEST SWAP1 SWAP8 POP SWAP6 POP POP PUSH1 0x20 DUP8 ADD CALLDATALOAD PUSH1 0x1 PUSH1 0x1 PUSH1 0x40 SHL SUB DUP2 GT ISZERO PUSH2 0xDF0 JUMPI PUSH1 0x0 DUP1 REVERT JUMPDEST PUSH2 0xDFC DUP10 DUP3 DUP11 ADD PUSH2 0xB0C JUMP JUMPDEST SWAP1 SWAP6 POP SWAP4 POP POP PUSH1 0x40 DUP8 ADD CALLDATALOAD PUSH1 0x1 PUSH1 0x1 PUSH1 0x40 SHL SUB DUP2 GT ISZERO PUSH2 0xE1B JUMPI PUSH1 0x0 DUP1 REVERT JUMPDEST PUSH2 0xE27 DUP10 DUP3 DUP11 ADD PUSH2 0xB0C JUMP JUMPDEST SWAP8 SWAP11 SWAP7 SWAP10 POP SWAP5 SWAP8 POP SWAP3 SWAP6 SWAP4 SWAP5 SWAP3 POP POP POP JUMP JUMPDEST PUSH2 0x120 DUP2 ADD PUSH2 0x333 DUP3 DUP5 PUSH2 0xC06 JUMP JUMPDEST PUSH1 0x0 DUP1 PUSH1 0x20 DUP4 DUP6 SUB SLT ISZERO PUSH2 0xE5B JUMPI PUSH1 0x0 DUP1 REVERT JUMPDEST DUP3 CALLDATALOAD PUSH1 0x1 PUSH1 0x1 PUSH1 0x40 SHL SUB DUP2 GT ISZERO PUSH2 0xE71 JUMPI PUSH1 0x0 DUP1 REVERT JUMPDEST PUSH2 0xE7D DUP6 DUP3 DUP7 ADD PUSH2 0xB0C JUMP JUMPDEST SWAP1 SWAP7 SWAP1 SWAP6 POP SWAP4 POP POP POP POP JUMP JUMPDEST PUSH4 0x4E487B71 PUSH1 0xE0 SHL PUSH1 0x0 MSTORE PUSH1 0x41 PUSH1 0x4 MSTORE PUSH1 0x24 PUSH1 0x0 REVERT JUMPDEST PUSH4 0x4E487B71 PUSH1 0xE0 SHL PUSH1 0x0 MSTORE PUSH1 0x32 PUSH1 0x4 MSTORE PUSH1 0x24 PUSH1 0x0 REVERT JUMPDEST PUSH1 0x0 DUP1 DUP4 CALLDATALOAD PUSH1 0x1E NOT DUP5 CALLDATASIZE SUB ADD DUP2 SLT PUSH2 0xECC JUMPI PUSH1 0x0 DUP1 REVERT JUMPDEST DUP4 ADD DUP1 CALLDATALOAD SWAP2 POP PUSH1 0x1 PUSH1 0x1 PUSH1 0x40 SHL SUB DUP3 GT ISZERO PUSH2 0xEE6 JUMPI PUSH1 0x0 DUP1 REVERT JUMPDEST PUSH1 0x20 ADD SWAP2 POP CALLDATASIZE DUP2 SWAP1 SUB DUP3 SGT ISZERO PUSH2 0xB50 JUMPI PUSH1 0x0 DUP1 REVERT JUMPDEST PUSH1 0x0 PUSH1 0x80 DUP3 DUP5 SUB SLT ISZERO PUSH2 0xF0D JUMPI PUSH1 0x0 DUP1 REVERT JUMPDEST PUSH1 0x40 MLOAD PUSH1 0x80 DUP2 ADD PUSH1 0x1 PUSH1 0x1 PUSH1 0x40 SHL SUB DUP2 GT DUP3 DUP3 LT OR ISZERO PUSH2 0xF3D JUMPI PUSH4 0x4E487B71 PUSH1 0xE0 SHL PUSH1 0x0 MSTORE PUSH1 0x41 PUSH1 0x4 MSTORE PUSH1 0x24 PUSH1 0x0 REVERT JUMPDEST PUSH1 0x40 MSTORE SWAP1 POP DUP1 PUSH2 0xF4C DUP4 PUSH2 0xCA5 JUMP JUMPDEST DUP2 MSTORE PUSH2 0xF5A PUSH1 0x20 DUP5 ADD PUSH2 0xB57 JUMP JUMPDEST PUSH1 0x20 DUP3 ADD MSTORE PUSH2 0xF6B PUSH1 0x40 DUP5 ADD PUSH2 0xCB7 JUMP JUMPDEST PUSH1 0x40 DUP3 ADD MSTORE PUSH1 0x60 SWAP3 DUP4 ADD CALLDATALOAD SWAP3 ADD SWAP2 SWAP1 SWAP2 MSTORE SWAP2 SWAP1 POP JUMP JUMPDEST PUSH1 0x0 PUSH2 0x120 DUP3 DUP5 SUB SLT DUP1 ISZERO PUSH2 0xF95 JUMPI PUSH1 0x0 DUP1 REVERT JUMPDEST POP PUSH1 0x40 MLOAD PUSH1 0x0 SWAP1 PUSH1 0x60 DUP2 ADD PUSH1 0x1 PUSH1 0x1 PUSH1 0x40 SHL SUB DUP2 GT DUP3 DUP3 LT OR ISZERO PUSH2 0xFC7 JUMPI PUSH4 0x4E487B71 PUSH1 0xE0 SHL DUP4 MSTORE PUSH1 0x41 PUSH1 0x4 MSTORE PUSH1 0x24 DUP4 REVERT JUMPDEST PUSH1 0x40 MSTORE DUP4 CALLDATALOAD DUP1 DUP3 MSTORE SWAP2 POP PUSH2 0xFDE DUP6 PUSH1 0x20 DUP7 ADD PUSH2 0xEFB JUMP JUMPDEST PUSH1 0x20 DUP3 ADD MSTORE PUSH2 0xFF0 DUP6 PUSH1 0xA0 DUP7 ADD PUSH2 0xEFB JUMP JUMPDEST PUSH1 0x40 DUP3 ADD MSTORE SWAP5 SWAP4 POP POP POP POP JUMP JUMPDEST PUSH4 0x4E487B71 PUSH1 0xE0 SHL PUSH1 0x0 MSTORE PUSH1 0x11 PUSH1 0x4 MSTORE PUSH1 0x24 PUSH1 0x0 REVERT JUMPDEST DUP1 DUP3 ADD DUP1 DUP3 GT ISZERO PUSH2 0x333 JUMPI PUSH2 0x333 PUSH2 0xFFD JUMP JUMPDEST DUP1 DUP3 MUL DUP2 ISZERO DUP3 DUP3 DIV DUP5 EQ OR PUSH2 0x333 JUMPI PUSH2 0x333 PUSH2 0xFFD JUMP JUMPDEST PUSH1 0x1 PUSH1 0x1 PUSH1 0x40 SHL SUB DUP2 DUP2 AND DUP4 DUP3 AND ADD SWAP1 DUP2 GT ISZERO PUSH2 0x333 JUMPI PUSH2 0x333 PUSH2 0xFFD JUMP INVALID LOG2 PUSH5 0x6970667358 0x22 SLT KECCAK256 0xDC TLOAD 0xE0 0xA8 LOG1 CALLCODE 0xAE PC RETURN SELFDESTRUCT TLOAD 0xDC 0xCC 0x28 0xE4 0x21 0xE6 0xA6 PUSH15 0xDEC2E389CCCBDD97B5E4F7971D6473 PUSH16 0x6C634300081C00330000000000000000 "},"methodIdentifiers":{"createPriceFeedUpdateData(bytes32,int64,uint64,int32,int64,uint64,uint64)":"96db6327","getEmaPrice(bytes32)":"b5dcc911","getEmaPriceNoOlderThan(bytes32,uint256)":"711a2e28","getEmaPriceUnsafe(bytes32)":"9474f45b","getPrice(bytes32)":"31d98b3f","getPriceNoOlderThan(bytes32,uint256)":"a4ae35e0","getPriceUnsafe(bytes32)":"96834ad3","getUpdateFee(bytes[])":"d47eed45","getValidTimePeriod()":"e18910a3","parsePriceFeedUpdates(bytes[],bytes32[],uint64,uint64)":"4716e9c5","priceFeedExists(bytes32)":"b5ec0261","queryPriceFeed(bytes32)":"caaf43f1","singleUpdateFeeInWei()":"48b6404d","updatePriceFeeds(bytes[])":"ef9e5e28","updatePriceFeedsIfNecessary(bytes[],bytes32[],uint64[])":"b9256d28","validTimePeriod()":"cbdaeaba"}}}}}