{
  "_format": "hh-sol-artifact-1",
  "contractName": "MockPyth",
  "sourceName": "contracts/libs/pyth-entropy/MockPyth.sol",
  "abi": [
    {
      "inputs": [
        {
          "internalType": "uint256",
          "name": "_validTimePeriod",
          "type": "uint256"
        },
        {
          "internalType": "uint256",
          "name": "_singleUpdateFeeInWei",
          "type": "uint256"
        }
      ],
      "stateMutability": "nonpayable",
      "type": "constructor"
    },
    {
      "inputs": [],
      "name": "InsufficientFee",
      "type": "error"
    },
    {
      "inputs": [],
      "name": "PriceFeedNotFound",
      "type": "error"
    },
    {
      "inputs": [],
      "name": "PriceFeedNotFoundWithinRange",
      "type": "error"
    },
    {
      "inputs": [],
      "name": "StalePrice",
      "type": "error"
    },
    {
      "anonymous": false,
      "inputs": [
        {
          "indexed": false,
          "internalType": "uint16",
          "name": "chainId",
          "type": "uint16"
        },
        {
          "indexed": false,
          "internalType": "uint64",
          "name": "sequenceNumber",
          "type": "uint64"
        }
      ],
      "name": "BatchPriceFeedUpdate",
      "type": "event"
    },
    {
      "anonymous": false,
      "inputs": [
        {
          "indexed": true,
          "internalType": "bytes32",
          "name": "id",
          "type": "bytes32"
        },
        {
          "indexed": false,
          "internalType": "uint64",
          "name": "publishTime",
          "type": "uint64"
        },
        {
          "indexed": false,
          "internalType": "int64",
          "name": "price",
          "type": "int64"
        },
        {
          "indexed": false,
          "internalType": "uint64",
          "name": "conf",
          "type": "uint64"
        }
      ],
      "name": "PriceFeedUpdate",
      "type": "event"
    },
    {
      "inputs": [
        {
          "internalType": "bytes32",
          "name": "id",
          "type": "bytes32"
        },
        {
          "internalType": "int64",
          "name": "price",
          "type": "int64"
        },
        {
          "internalType": "uint64",
          "name": "conf",
          "type": "uint64"
        },
        {
          "internalType": "int32",
          "name": "expo",
          "type": "int32"
        },
        {
          "internalType": "int64",
          "name": "emaPrice",
          "type": "int64"
        },
        {
          "internalType": "uint64",
          "name": "emaConf",
          "type": "uint64"
        },
        {
          "internalType": "uint64",
          "name": "publishTime",
          "type": "uint64"
        }
      ],
      "name": "createPriceFeedUpdateData",
      "outputs": [
        {
          "internalType": "bytes",
          "name": "",
          "type": "bytes"
        }
      ],
      "stateMutability": "pure",
      "type": "function"
    },
    {
      "inputs": [
        {
          "internalType": "bytes32",
          "name": "id",
          "type": "bytes32"
        }
      ],
      "name": "getEmaPrice",
      "outputs": [
        {
          "components": [
            {
              "internalType": "int64",
              "name": "price",
              "type": "int64"
            },
            {
              "internalType": "uint64",
              "name": "conf",
              "type": "uint64"
            },
            {
              "internalType": "int32",
              "name": "expo",
              "type": "int32"
            },
            {
              "internalType": "uint256",
              "name": "publishTime",
              "type": "uint256"
            }
          ],
          "internalType": "struct PythStructs.Price",
          "name": "price",
          "type": "tuple"
        }
      ],
      "stateMutability": "view",
      "type": "function"
    },
    {
      "inputs": [
        {
          "internalType": "bytes32",
          "name": "id",
          "type": "bytes32"
        },
        {
          "internalType": "uint256",
          "name": "age",
          "type": "uint256"
        }
      ],
      "name": "getEmaPriceNoOlderThan",
      "outputs": [
        {
          "components": [
            {
              "internalType": "int64",
              "name": "price",
              "type": "int64"
            },
            {
              "internalType": "uint64",
              "name": "conf",
              "type": "uint64"
            },
            {
              "internalType": "int32",
              "name": "expo",
              "type": "int32"
            },
            {
              "internalType": "uint256",
              "name": "publishTime",
              "type": "uint256"
            }
          ],
          "internalType": "struct PythStructs.Price",
          "name": "price",
          "type": "tuple"
        }
      ],
      "stateMutability": "view",
      "type": "function"
    },
    {
      "inputs": [
        {
          "internalType": "bytes32",
          "name": "id",
          "type": "bytes32"
        }
      ],
      "name": "getEmaPriceUnsafe",
      "outputs": [
        {
          "components": [
            {
              "internalType": "int64",
              "name": "price",
              "type": "int64"
            },
            {
              "internalType": "uint64",
              "name": "conf",
              "type": "uint64"
            },
            {
              "internalType": "int32",
              "name": "expo",
              "type": "int32"
            },
            {
              "internalType": "uint256",
              "name": "publishTime",
              "type": "uint256"
            }
          ],
          "internalType": "struct PythStructs.Price",
          "name": "price",
          "type": "tuple"
        }
      ],
      "stateMutability": "view",
      "type": "function"
    },
    {
      "inputs": [
        {
          "internalType": "bytes32",
          "name": "id",
          "type": "bytes32"
        }
      ],
      "name": "getPrice",
      "outputs": [
        {
          "components": [
            {
              "internalType": "int64",
              "name": "price",
              "type": "int64"
            },
            {
              "internalType": "uint64",
              "name": "conf",
              "type": "uint64"
            },
            {
              "internalType": "int32",
              "name": "expo",
              "type": "int32"
            },
            {
              "internalType": "uint256",
              "name": "publishTime",
              "type": "uint256"
            }
          ],
          "internalType": "struct PythStructs.Price",
          "name": "price",
          "type": "tuple"
        }
      ],
      "stateMutability": "view",
      "type": "function"
    },
    {
      "inputs": [
        {
          "internalType": "bytes32",
          "name": "id",
          "type": "bytes32"
        },
        {
          "internalType": "uint256",
          "name": "age",
          "type": "uint256"
        }
      ],
      "name": "getPriceNoOlderThan",
      "outputs": [
        {
          "components": [
            {
              "internalType": "int64",
              "name": "price",
              "type": "int64"
            },
            {
              "internalType": "uint64",
              "name": "conf",
              "type": "uint64"
            },
            {
              "internalType": "int32",
              "name": "expo",
              "type": "int32"
            },
            {
              "internalType": "uint256",
              "name": "publishTime",
              "type": "uint256"
            }
          ],
          "internalType": "struct PythStructs.Price",
          "name": "price",
          "type": "tuple"
        }
      ],
      "stateMutability": "view",
      "type": "function"
    },
    {
      "inputs": [
        {
          "internalType": "bytes32",
          "name": "id",
          "type": "bytes32"
        }
      ],
      "name": "getPriceUnsafe",
      "outputs": [
        {
          "components": [
            {
              "internalType": "int64",
              "name": "price",
              "type": "int64"
            },
            {
              "internalType": "uint64",
              "name": "conf",
              "type": "uint64"
            },
            {
              "internalType": "int32",
              "name": "expo",
              "type": "int32"
            },
            {
              "internalType": "uint256",
              "name": "publishTime",
              "type": "uint256"
            }
          ],
          "internalType": "struct PythStructs.Price",
          "name": "price",
          "type": "tuple"
        }
      ],
      "stateMutability": "view",
      "type": "function"
    },
    {
      "inputs": [
        {
          "internalType": "bytes[]",
          "name": "updateData",
          "type": "bytes[]"
        }
      ],
      "name": "getUpdateFee",
      "outputs": [
        {
          "internalType": "uint256",
          "name": "",
          "type": "uint256"
        }
      ],
      "stateMutability": "view",
      "type": "function"
    },
    {
      "inputs": [],
      "name": "getValidTimePeriod",
      "outputs": [
        {
          "internalType": "uint256",
          "name": "",
          "type": "uint256"
        }
      ],
      "stateMutability": "view",
      "type": "function"
    },
    {
      "inputs": [
        {
          "internalType": "bytes[]",
          "name": "updateData",
          "type": "bytes[]"
        },
        {
          "internalType": "bytes32[]",
          "name": "priceIds",
          "type": "bytes32[]"
        },
        {
          "internalType": "uint64",
          "name": "minPublishTime",
          "type": "uint64"
        },
        {
          "internalType": "uint64",
          "name": "maxPublishTime",
          "type": "uint64"
        }
      ],
      "name": "parsePriceFeedUpdates",
      "outputs": [
        {
          "components": [
            {
              "internalType": "bytes32",
              "name": "id",
              "type": "bytes32"
            },
            {
              "components": [
                {
                  "internalType": "int64",
                  "name": "price",
                  "type": "int64"
                },
                {
                  "internalType": "uint64",
                  "name": "conf",
                  "type": "uint64"
                },
                {
                  "internalType": "int32",
                  "name": "expo",
                  "type": "int32"
                },
                {
                  "internalType": "uint256",
                  "name": "publishTime",
                  "type": "uint256"
                }
              ],
              "internalType": "struct PythStructs.Price",
              "name": "price",
              "type": "tuple"
            },
            {
              "components": [
                {
                  "internalType": "int64",
                  "name": "price",
                  "type": "int64"
                },
                {
                  "internalType": "uint64",
                  "name": "conf",
                  "type": "uint64"
                },
                {
                  "internalType": "int32",
                  "name": "expo",
                  "type": "int32"
                },
                {
                  "internalType": "uint256",
                  "name": "publishTime",
                  "type": "uint256"
                }
              ],
              "internalType": "struct PythStructs.Price",
              "name": "emaPrice",
              "type": "tuple"
            }
          ],
          "internalType": "struct PythStructs.PriceFeed[]",
          "name": "feeds",
          "type": "tuple[]"
        }
      ],
      "stateMutability": "payable",
      "type": "function"
    },
    {
      "inputs": [
        {
          "internalType": "bytes32",
          "name": "id",
          "type": "bytes32"
        }
      ],
      "name": "priceFeedExists",
      "outputs": [
        {
          "internalType": "bool",
          "name": "",
          "type": "bool"
        }
      ],
      "stateMutability": "view",
      "type": "function"
    },
    {
      "inputs": [
        {
          "internalType": "bytes32",
          "name": "id",
          "type": "bytes32"
        }
      ],
      "name": "queryPriceFeed",
      "outputs": [
        {
          "components": [
            {
              "internalType": "bytes32",
              "name": "id",
              "type": "bytes32"
            },
            {
              "components": [
                {
                  "internalType": "int64",
                  "name": "price",
                  "type": "int64"
                },
                {
                  "internalType": "uint64",
                  "name": "conf",
                  "type": "uint64"
                },
                {
                  "internalType": "int32",
                  "name": "expo",
                  "type": "int32"
                },
                {
                  "internalType": "uint256",
                  "name": "publishTime",
                  "type": "uint256"
                }
              ],
              "internalType": "struct PythStructs.Price",
              "name": "price",
              "type": "tuple"
            },
            {
              "components": [
                {
                  "internalType": "int64",
                  "name": "price",
                  "type": "int64"
                },
                {
                  "internalType": "uint64",
                  "name": "conf",
                  "type": "uint64"
                },
                {
                  "internalType": "int32",
                  "name": "expo",
                  "type": "int32"
                },
                {
                  "internalType": "uint256",
                  "name": "publishTime",
                  "type": "uint256"
                }
              ],
              "internalType": "struct PythStructs.Price",
              "name": "emaPrice",
              "type": "tuple"
            }
          ],
          "internalType": "struct PythStructs.PriceFeed",
          "name": "",
          "type": "tuple"
        }
      ],
      "stateMutability": "view",
      "type": "function"
    },
    {
      "inputs": [],
      "name": "singleUpdateFeeInWei",
      "outputs": [
        {
          "internalType": "uint256",
          "name": "",
          "type": "uint256"
        }
      ],
      "stateMutability": "view",
      "type": "function"
    },
    {
      "inputs": [
        {
          "internalType": "bytes[]",
          "name": "updateData",
          "type": "bytes[]"
        }
      ],
      "name": "updatePriceFeeds",
      "outputs": [],
      "stateMutability": "payable",
      "type": "function"
    },
    {
      "inputs": [
        {
          "internalType": "bytes[]",
          "name": "updateData",
          "type": "bytes[]"
        },
        {
          "internalType": "bytes32[]",
          "name": "priceIds",
          "type": "bytes32[]"
        },
        {
          "internalType": "uint64[]",
          "name": "publishTimes",
          "type": "uint64[]"
        }
      ],
      "name": "updatePriceFeedsIfNecessary",
      "outputs": [],
      "stateMutability": "payable",
      "type": "function"
    },
    {
      "inputs": [],
      "name": "validTimePeriod",
      "outputs": [
        {
          "internalType": "uint256",
          "name": "",
          "type": "uint256"
        }
      ],
      "stateMutability": "view",
      "type": "function"
    }
  ],
  "bytecode": "0x6080604052348015600f57600080fd5b506040516110fd3803806110fd833981016040819052602c916039565b600391909155600255605c565b60008060408385031215604b57600080fd5b505080516020909101519092909150565b6110928061006b6000396000f3fe6080604052600436106100f35760003560e01c8063b5dcc9111161008a578063cbdaeaba11610059578063cbdaeaba146102c0578063d47eed45146102d6578063e18910a3146102f6578063ef9e5e281461030b57600080fd5b8063b5dcc9111461021f578063b5ec02611461023f578063b9256d281461027e578063caaf43f11461029357600080fd5b80639474f45b116100c65780639474f45b1461019257806396834ad3146101b257806396db6327146101d2578063a4ae35e0146101ff57600080fd5b806331d98b3f146100f85780634716e9c51461012e57806348b6404d1461014e578063711a2e2814610172575b600080fd5b34801561010457600080fd5b50610118610113366004610ab0565b61031e565b6040516101259190610afe565b60405180910390f35b61014161013c366004610b73565b610339565b6040516101259190610c34565b34801561015a57600080fd5b5061016460025481565b604051908152602001610125565b34801561017e57600080fd5b5061011861018d366004610c83565b610517565b34801561019e57600080fd5b506101186101ad366004610ab0565b61055a565b3480156101be57600080fd5b506101186101cd366004610ab0565b610575565b3480156101de57600080fd5b506101f26101ed366004610cc9565b610590565b6040516101259190610d48565b34801561020b57600080fd5b5061011861021a366004610c83565b61062f565b34801561022b57600080fd5b5061011861023a366004610ab0565b610640565b34801561024b57600080fd5b5061026e61025a366004610ab0565b600090815260208190526040902054151590565b6040519015158152602001610125565b61029161028c366004610d96565b610655565b005b34801561029f57600080fd5b506102b36102ae366004610ab0565b610667565b6040516101259190610e39565b3480156102cc57600080fd5b5061016460035481565b3480156102e257600080fd5b506101646102f1366004610e48565b610745565b34801561030257600080fd5b50600354610164565b610291610319366004610e48565b61075d565b610326610a5c565b6103338261021a60035490565b92915050565b6060836001600160401b0381111561035357610353610e89565b60405190808252806020026020018201604052801561038c57816020015b610379610a83565b8152602001906001900390816103715790505b50905060005b8481101561050c5760005b878110156104ae578888828181106103b7576103b7610e9f565b90506020028101906103c99190610eb5565b8101906103d69190610f81565b8383815181106103e8576103e8610e9f565b602002602001018190525086868381811061040557610405610e9f565b9050602002013583838151811061041e5761041e610e9f565b602002602001015160000151036104a657600083838151811061044357610443610e9f565b602002602001015160200151606001519050856001600160401b031681101580156104775750846001600160401b03168111155b1561048257506104ae565b6000801b84848151811061049857610498610e9f565b602090810291909101015152505b60010161039d565b508585828181106104c1576104c1610e9f565b905060200201358282815181106104da576104da610e9f565b60200260200101516000015114610504576040516345805f5d60e01b815260040160405180910390fd5b600101610392565b509695505050505050565b61051f610a5c565b6105288361055a565b905081816060015161053a9190611013565b42111561033357604051630cd5fa0760e11b815260040160405180910390fd5b610562610a5c565b61056b82610667565b6040015192915050565b61057d610a5c565b61058682610667565b6020015192915050565b606061059a610a83565b8881526020808201805160078b810b90915281516001600160401b03808c1691850191909152825160038b900b6040918201819052935188831660609182018190528288018051958d900b9095528451938b169387019390935283518201949094529151909201919091525161061291839101610e39565b604051602081830303815290604052915050979650505050505050565b610637610a5c565b61052883610575565b610648610a5c565b6103338261018d60035490565b61065f868661075d565b505050505050565b61066f610a83565b600082815260208190526040812054900361069d57604051630295d7cd60e31b815260040160405180910390fd5b5060009081526020818152604091829020825160608082018552825482528451608080820187526001850154600781810b84526001600160401b03680100000000000000008084048216868b0152600160801b93849004600390810b878d015260028a015487890152888b01969096528a519485018b52858901549283900b855282041697830197909752909504900b84860152600490920154918301919091529182015290565b600254600090610756908390611026565b9392505050565b60006107698383610745565b90508034101561078b5760405162976f7560e21b815260040160405180910390fd5b600160005b838110156109cb5760008585838181106107ac576107ac610e9f565b90506020028101906107be9190610eb5565b8101906107cb9190610f81565b8051600090815260208181526040909120600201549082015160600151919250908110156109c15781600080846000015181526020019081526020016000206000820151816000015560208201518160010160008201518160000160006101000a8154816001600160401b03021916908360070b6001600160401b0316021790555060208201518160000160086101000a8154816001600160401b0302191690836001600160401b0316021790555060408201518160000160106101000a81548163ffffffff021916908360030b63ffffffff16021790555060608201518160010155505060408201518160030160008201518160000160006101000a8154816001600160401b03021916908360070b6001600160401b0316021790555060208201518160000160086101000a8154816001600160401b0302191690836001600160401b0316021790555060408201518160000160106101000a81548163ffffffff021916908360030b63ffffffff16021790555060608201518160010155505090505081600001517fd06a6b7f4918494b3719217d1802786c1f5112a6c1d88fe2cfec00b4584f6aec828460200151600001518560200151602001516040516109b8939291906001600160401b03938416815260079290920b6020830152909116604082015260600190565b60405180910390a25b5050600101610790565b506001546040805161ffff841681526001600160401b0390921660208301527f943f0e8a16c19895fb87cbeb1a349ed86d7f31923089dd36c1a1ed5e300f267b910160405180910390a1600180548190600090610a329083906001600160401b031661103d565b92506101000a8154816001600160401b0302191690836001600160401b0316021790555050505050565b60408051608081018252600080825260208201819052918101829052606081019190915290565b60408051606081019091526000815260208101610a9e610a5c565b8152602001610aab610a5c565b905290565b600060208284031215610ac257600080fd5b5035919050565b805160070b82526001600160401b036020820151166020830152604081015160030b6040830152606081015160608301525050565b608081016103338284610ac9565b60008083601f840112610b1e57600080fd5b5081356001600160401b03811115610b3557600080fd5b6020830191508360208260051b8501011115610b5057600080fd5b9250929050565b80356001600160401b0381168114610b6e57600080fd5b919050565b60008060008060008060808789031215610b8c57600080fd5b86356001600160401b03811115610ba257600080fd5b610bae89828a01610b0c565b90975095505060208701356001600160401b03811115610bcd57600080fd5b610bd989828a01610b0c565b9095509350610bec905060408801610b57565b9150610bfa60608801610b57565b90509295509295509295565b805182526020810151610c1c6020840182610ac9565b506040810151610c2f60a0840182610ac9565b505050565b602080825282518282018190526000918401906040840190835b81811015610c7857610c61838551610c06565b602093909301926101209290920191600101610c4e565b509095945050505050565b60008060408385031215610c9657600080fd5b50508035926020909101359150565b8035600781900b8114610b6e57600080fd5b8035600381900b8114610b6e57600080fd5b600080600080600080600060e0888a031215610ce457600080fd5b87359650610cf460208901610ca5565b9550610d0260408901610b57565b9450610d1060608901610cb7565b9350610d1e60808901610ca5565b9250610d2c60a08901610b57565b9150610d3a60c08901610b57565b905092959891949750929550565b602081526000825180602084015260005b81811015610d765760208186018101516040868401015201610d59565b506000604082850101526040601f19601f83011684010191505092915050565b60008060008060008060608789031215610daf57600080fd5b86356001600160401b03811115610dc557600080fd5b610dd189828a01610b0c565b90975095505060208701356001600160401b03811115610df057600080fd5b610dfc89828a01610b0c565b90955093505060408701356001600160401b03811115610e1b57600080fd5b610e2789828a01610b0c565b979a9699509497509295939492505050565b61012081016103338284610c06565b60008060208385031215610e5b57600080fd5b82356001600160401b03811115610e7157600080fd5b610e7d85828601610b0c565b90969095509350505050565b634e487b7160e01b600052604160045260246000fd5b634e487b7160e01b600052603260045260246000fd5b6000808335601e19843603018112610ecc57600080fd5b8301803591506001600160401b03821115610ee657600080fd5b602001915036819003821315610b5057600080fd5b600060808284031215610f0d57600080fd5b604051608081016001600160401b0381118282101715610f3d57634e487b7160e01b600052604160045260246000fd5b604052905080610f4c83610ca5565b8152610f5a60208401610b57565b6020820152610f6b60408401610cb7565b6040820152606092830135920191909152919050565b6000610120828403128015610f9557600080fd5b50604051600090606081016001600160401b0381118282101715610fc757634e487b7160e01b83526041600452602483fd5b60405283358082529150610fde8560208601610efb565b6020820152610ff08560a08601610efb565b6040820152949350505050565b634e487b7160e01b600052601160045260246000fd5b8082018082111561033357610333610ffd565b808202811582820484141761033357610333610ffd565b6001600160401b03818116838216019081111561033357610333610ffd56fea2646970667358221220dc5ce0a8a1f2ae58f3ff5cdccc28e421e6a66edec2e389cccbdd97b5e4f7971d64736f6c634300081c0033",
  "linkReferences": {},
  "deployedLinkReferences": {}
}