{
  "_format": "hh-sol-artifact-1",
  "contractName": "MockEntropyV2",
  "sourceName": "contracts/mocks/MockEntropyV2.sol",
  "abi": [
    {
      "inputs": [],
      "name": "requestV2",
      "outputs": [
        {
          "internalType": "uint64",
          "name": "",
          "type": "uint64"
        }
      ],
      "stateMutability": "payable",
      "type": "function"
    },
    {
      "inputs": [],
      "name": "sequenceCounter",
      "outputs": [
        {
          "internalType": "uint64",
          "name": "",
          "type": "uint64"
        }
      ],
      "stateMutability": "view",
      "type": "function"
    }
  ],
  "bytecode": "0x6080604052348015600f57600080fd5b506101e58061001f6000396000f3fe6080604052600436106100295760003560e01c80637b43155d1461002e578063a5494ce514610053575b600080fd5b610036610074565b60405167ffffffffffffffff909116815260200160405180910390f35b34801561005f57600080fd5b506000546100369067ffffffffffffffff1681565b6000805467ffffffffffffffff16818061008d83610174565b82546101009290920a67ffffffffffffffff818102199093169190921691909102179055506000805460408051426020820152449181019190915260c09190911b6001600160c01b031916606082015260680160408051808303601f19018152908290528051602090910120600054630a54be3f60e31b835267ffffffffffffffff16600483015230602483015260448201819052915033906352a5f1f890606401600060405180830381600087803b15801561014957600080fd5b505af115801561015d573d6000803e3d6000fd5b505060005467ffffffffffffffff16949350505050565b600067ffffffffffffffff821667ffffffffffffffff81036101a657634e487b7160e01b600052601160045260246000fd5b6001019291505056fea2646970667358221220a2828bffc9dff08eee4d1f1b2be03adac2b3e7ead5614f8374cf24e92ec7244064736f6c634300081c0033",
  "linkReferences": {},
  "deployedLinkReferences": {}
}