{
  "_format": "hh-sol-artifact-1",
  "contractName": "PythOfFortune",
  "sourceName": "contracts/PythOfFortune.sol",
  "abi": [
    {
      "inputs": [
        {
          "internalType": "address",
          "name": "entropyAddress",
          "type": "address"
        }
      ],
      "stateMutability": "nonpayable",
      "type": "constructor"
    },
    {
      "inputs": [
        {
          "internalType": "uint64",
          "name": "sequence",
          "type": "uint64"
        },
        {
          "internalType": "address",
          "name": "provider",
          "type": "address"
        },
        {
          "internalType": "bytes32",
          "name": "randomNumber",
          "type": "bytes32"
        }
      ],
      "name": "_entropyCallback",
      "outputs": [],
      "stateMutability": "nonpayable",
      "type": "function"
    },
    {
      "inputs": [],
      "name": "entropy",
      "outputs": [
        {
          "internalType": "contract IEntropyV2",
          "name": "",
          "type": "address"
        }
      ],
      "stateMutability": "view",
      "type": "function"
    },
    {
      "inputs": [],
      "name": "requestRandomness",
      "outputs": [
        {
          "internalType": "uint64",
          "name": "sequence",
          "type": "uint64"
        }
      ],
      "stateMutability": "payable",
      "type": "function"
    },
    {
      "inputs": [
        {
          "internalType": "uint64",
          "name": "",
          "type": "uint64"
        }
      ],
      "name": "results",
      "outputs": [
        {
          "internalType": "bytes32",
          "name": "",
          "type": "bytes32"
        }
      ],
      "stateMutability": "view",
      "type": "function"
    }
  ],
  "bytecode": "0x6080604052348015600f57600080fd5b50604051610426380380610426833981016040819052602c9160a9565b6001600160a01b03811660855760405162461bcd60e51b815260206004820152601760248201527f496e76616c696420656e74726f70792061646472657373000000000000000000604482015260640160405180910390fd5b600080546001600160a01b0319166001600160a01b039290921691909117905560d7565b60006020828403121560ba57600080fd5b81516001600160a01b038116811460d057600080fd5b9392505050565b610340806100e66000396000f3fe60806040526004361061003f5760003560e01c806347ce07cc1461004457806352a5f1f814610081578063d0dcdb6d146100a3578063f8413b07146100de575b600080fd5b34801561005057600080fd5b50600054610064906001600160a01b031681565b6040516001600160a01b0390911681526020015b60405180910390f35b34801561008d57600080fd5b506100a161009c36600461027c565b6100ff565b005b3480156100af57600080fd5b506100d06100be3660046102c9565b60016020526000908152604090205481565b604051908152602001610078565b6100e66101e3565b60405167ffffffffffffffff9091168152602001610078565b6000546001600160a01b03168061015d5760405162461bcd60e51b815260206004820152601760248201527f456e74726f70792061646472657373206e6f742073657400000000000000000060448201526064015b60405180910390fd5b336001600160a01b038216146101c15760405162461bcd60e51b815260206004820152602360248201527f4f6e6c7920456e74726f70792063616e2063616c6c20746869732066756e637460448201526234b7b760e91b6064820152608401610154565b67ffffffffffffffff8416600090815260016020526040902082905550505050565b60008060009054906101000a90046001600160a01b03166001600160a01b0316637b43155d346040518263ffffffff1660e01b815260040160206040518083038185885af1158015610239573d6000803e3d6000fd5b50505050506040513d601f19601f8201168201806040525081019061025e91906102ed565b905090565b67ffffffffffffffff8116811461027957600080fd5b50565b60008060006060848603121561029157600080fd5b833561029c81610263565b925060208401356001600160a01b03811681146102b857600080fd5b929592945050506040919091013590565b6000602082840312156102db57600080fd5b81356102e681610263565b9392505050565b6000602082840312156102ff57600080fd5b81516102e68161026356fea26469706673582212208200df9de4a01180a66a99a789c277e875839782bc4cd02b4c9025690e3e0e0764736f6c634300081c0033",
  "linkReferences": {},
  "deployedLinkReferences": {}
}